{
  "transactions": [
    {
      "hash": "0x411cab0bcdc4df6647cd705c0c1929cce32b0317805b87ba280bece598804fc1",
      "transactionType": "CREATE",
      "contractName": "AcademicCertificateNFT",
      "contractAddress": "0x5f23ed17783d21cfd770051547a7eac0952bf10a",
      "function": null,
      "arguments": null,
      "transaction": {
        "from": "0x1a2cdc9ea7dfc55aeadb314bb8c3b09e938c989b",
        "gas": "0x267ffb",
        "value": "0x0",
        "input": "0x608060405234801561000f575f80fd5b506040518060400160405280601481526020017f41636164656d6963204469706c6f6d61204e4654000000000000000000000000815250604051806040016040528060078152602001664449504c4f4d4160c81b815250815f90816100749190610206565b5060016100818282610206565b5061009091505f9050336100c1565b506100bb7f4b90e70a23ad1c016cdba1a015076c2de977e305fcad3881690cafbe99d36190336100c1565b506102c5565b5f8281526007602090815260408083206001600160a01b038516845290915281205460ff16610165575f8381526007602090815260408083206001600160a01b03861684529091529020805460ff1916600117905561011d3390565b6001600160a01b0316826001600160a01b0316847f2f8788117e7eff1d82e926ec794901d17c78024a50270940304540a733656f0d60405160405180910390a4506001610168565b505f5b92915050565b634e487b7160e01b5f52604160045260245ffd5b600181811c9082168061019657607f821691505b6020821081036101b457634e487b7160e01b5f52602260045260245ffd5b50919050565b601f82111561020157805f5260205f20601f840160051c810160208510156101df5750805b601f840160051c820191505b818110156101fe575f81556001016101eb565b50505b505050565b81516001600160401b0381111561021f5761021f61016e565b6102338161022d8454610182565b846101ba565b602080601f831160018114610266575f841561024f5750858301515b5f19600386901b1c1916600185901b1785556102bd565b5f85815260208120601f198616915b8281101561029457888601518255948401946001909101908401610275565b50858210156102b157878501515f19600388901b60f8161c191681555b505060018460011b0185555b505050505050565b612033806102d25f395ff3fe608060405234801561000f575f80fd5b5060043610610187575f3560e01c80636c93ea46116100d9578063a901fe5e11610093578063c87b56dd1161006e578063c87b56dd14610392578063d547741f146103a5578063e5a357f5146103b8578063e985e9c5146103cb575f80fd5b8063a901fe5e1461034c578063b1466d1d1461036c578063b88d4fde1461037f575f80fd5b80636c93ea46146102f157806370a082311461030457806391d148541461031757806395d89b411461032a578063a217fddf14610332578063a22cb46514610339575f80fd5b80632a31b5a31161014457806342842e0e1161011f57806342842e0e146102985780636352211e146102ab57806366cb041f146102be578063689f7686146102de575f80fd5b80632a31b5a31461024b5780632f2ff15d1461027257806336568abe14610285575f80fd5b806301ffc9a71461018b57806306fdde03146101b3578063081812fc146101c8578063095ea7b3146101f357806323b872dd14610208578063248a9ca31461021b575b5f80fd5b61019e61019936600461189c565b6103de565b60405190151581526020015b60405180910390f35b6101bb6103ee565b6040516101aa91906118e5565b6101db6101d63660046118f7565b61047d565b6040516001600160a01b0390911681526020016101aa565b610206610201366004611929565b6104a4565b005b610206610216366004611951565b6104b3565b61023d6102293660046118f7565b5f9081526007602052604090206001015490565b6040519081526020016101aa565b61023d7f4b90e70a23ad1c016cdba1a015076c2de977e305fcad3881690cafbe99d3619081565b61020661028036600461198a565b610541565b61020661029336600461198a565b610565565b6102066102a6366004611951565b61059d565b6101db6102b93660046118f7565b6105b7565b6102d16102cc3660046119b4565b6105c1565b6040516101aa91906119d4565b61023d6102ec366004611abc565b61071a565b6102066102ff366004611b7a565b6108a9565b61023d610312366004611bbe565b6109af565b61019e61032536600461198a565b6109f4565b6101bb610a1e565b61023d5f81565b610206610347366004611bd7565b610a2d565b61035f61035a3660046118f7565b610a38565b6040516101aa9190611c10565b61020661037a366004611b7a565b610ca4565b61020661038d366004611c9f565b610d8d565b6101bb6103a03660046118f7565b610da5565b6102066103b336600461198a565b610eb0565b6102d16103c63660046118f7565b610ed4565b61019e6103d9366004611d16565b610f33565b5f6103e882610f60565b92915050565b60605f80546103fc90611d3e565b80601f016020809104026020016040519081016040528092919081815260200182805461042890611d3e565b80156104735780601f1061044a57610100808354040283529160200191610473565b820191905f5260205f20905b81548152906001019060200180831161045657829003601f168201915b5050505050905090565b5f61048782610f84565b505f828152600460205260409020546001600160a01b03166103e8565b6104af828233610fbc565b5050565b6001600160a01b0382166104e157604051633250574960e11b81525f60048201526024015b60405180910390fd5b5f6104ed838333610fc9565b9050836001600160a01b0316816001600160a01b03161461053b576040516364283d7b60e01b81526001600160a01b03808616600483015260248201849052821660448201526064016104d8565b50505050565b5f8281526007602052604090206001015461055b816110bb565b61053b83836110c8565b6001600160a01b038116331461058e5760405163334bd91960e11b815260040160405180910390fd5b6105988282611159565b505050565b61059883838360405180602001604052805f815250610d8d565b5f6103e882610f84565b60605f821161061c5760405162461bcd60e51b815260206004820152602160248201527f7061676553697a652073686f756c642062652067726561746572207468616e206044820152600360fc1b60648201526084016104d8565b6008545f61062a8486611d8a565b90508181106106705760405162461bcd60e51b815260206004820152601260248201527150616765206f7574206f6620626f756e647360701b60448201526064016104d8565b5f61067b8284611da1565b90505f85821061068b578561068d565b815b90505f8167ffffffffffffffff8111156106a9576106a9611a17565b6040519080825280602002602001820160405280156106d2578160200160208202803683370190505b5090505f5b8281101561070e576106e98186611db4565b8282815181106106fb576106fb611dc7565b60209081029190910101526001016106d7565b50979650505050505050565b5f7f4b90e70a23ad1c016cdba1a015076c2de977e305fcad3881690cafbe99d36190610745816110bb565b600880545f918261075583611ddb565b9190505590506040518060e001604052808981526020018881526020018781526020016301e13380426107889190611df3565b610794906107b2611db4565b815260208082018890526001604080840191909152426060909301929092525f848152600990915220815181906107cb9082611e56565b5060208201516001820155604082015160028201906107ea9082611e56565b5060608201516003820155608082015160048201906108099082611e56565b5060a082015160058201805460ff191691151591909117905560c0909101516006909101555f878152600a602090815260408220805460018101825590835291200181905561085889826111c4565b6108628185611225565b86817f33d618f03fce777f020754896bd309ec864294c350ab96e273f8706f29df86e58842604051610895929190611f12565b60405180910390a398975050505050505050565b7f4b90e70a23ad1c016cdba1a015076c2de977e305fcad3881690cafbe99d361906108d3816110bb565b5f838152600260205260409020546001600160a01b03166109065760405162461bcd60e51b81526004016104d890611f33565b5f8381526009602052604090206005015460ff166109665760405162461bcd60e51b815260206004820152601a60248201527f4365206365727469666963617420657374207265766f7175657200000000000060448201526064016104d8565b6109708383611225565b827fcfbfcc21605b20d720137ae3e0152b9601040bb9a22eec394c3897990da9753983426040516109a2929190611f12565b60405180910390a2505050565b5f6001600160a01b0382166109d9576040516322718ad960e21b81525f60048201526024016104d8565b506001600160a01b03165f9081526003602052604090205490565b5f9182526007602090815260408084206001600160a01b0393909316845291905290205460ff1690565b6060600180546103fc90611d3e565b6104af338383611274565b610a766040518060e00160405280606081526020015f8152602001606081526020015f8152602001606081526020015f151581526020015f81525090565b5f828152600260205260409020546001600160a01b0316610aa95760405162461bcd60e51b81526004016104d890611f33565b5f8281526009602052604090819020815160e08101909252805482908290610ad090611d3e565b80601f0160208091040260200160405190810160405280929190818152602001828054610afc90611d3e565b8015610b475780601f10610b1e57610100808354040283529160200191610b47565b820191905f5260205f20905b815481529060010190602001808311610b2a57829003601f168201915b5050505050815260200160018201548152602001600282018054610b6a90611d3e565b80601f0160208091040260200160405190810160405280929190818152602001828054610b9690611d3e565b8015610be15780601f10610bb857610100808354040283529160200191610be1565b820191905f5260205f20905b815481529060010190602001808311610bc457829003601f168201915b5050505050815260200160038201548152602001600482018054610c0490611d3e565b80601f0160208091040260200160405190810160405280929190818152602001828054610c3090611d3e565b8015610c7b5780601f10610c5257610100808354040283529160200191610c7b565b820191905f5260205f20905b815481529060010190602001808311610c5e57829003601f168201915b5050509183525050600582015460ff161515602082015260069091015460409091015292915050565b5f610cae816110bb565b5f838152600260205260409020546001600160a01b0316610ce15760405162461bcd60e51b81526004016104d890611f33565b5f8381526009602052604090206005015460ff16610d415760405162461bcd60e51b815260206004820152601860248201527f436572746966696361742064656a61207265766f71756572000000000000000060448201526064016104d8565b5f8381526009602052604090819020600501805460ff191690555183907feabe56bb1d954cc547a259b3ee0e6093882c585dc777b92351571cf5f810b948906109a29042908690611f63565b610d988484846104b3565b61053b3385858585611312565b6060610db082610f84565b505f8281526006602052604081208054610dc990611d3e565b80601f0160208091040260200160405190810160405280929190818152602001828054610df590611d3e565b8015610e405780601f10610e1757610100808354040283529160200191610e40565b820191905f5260205f20905b815481529060010190602001808311610e2357829003601f168201915b505050505090505f610e5c60408051602081019091525f815290565b905080515f03610e6d575092915050565b815115610e9f578082604051602001610e87929190611f92565b60405160208183030381529060405292505050919050565b610ea88461143a565b949350505050565b5f82815260076020526040902060010154610eca816110bb565b61053b8383611159565b5f818152600a6020908152604091829020805483518184028101840190945280845260609392830182828015610f2757602002820191905f5260205f20905b815481526020019060010190808311610f13575b50505050509050919050565b6001600160a01b039182165f90815260056020908152604080832093909416825291909152205460ff1690565b5f6001600160e01b03198216637965db0b60e01b14806103e857506103e8826114ab565b5f818152600260205260408120546001600160a01b0316806103e857604051637e27328960e01b8152600481018490526024016104d8565b61059883838360016114cf565b5f828152600260205260408120546001600160a01b0390811690831615610ff557610ff58184866115d3565b6001600160a01b0381161561102f576110105f855f806114cf565b6001600160a01b0381165f90815260036020526040902080545f190190555b6001600160a01b0385161561105d576001600160a01b0385165f908152600360205260409020805460010190555b5f8481526002602052604080822080546001600160a01b0319166001600160a01b0389811691821790925591518793918516917fddf252ad1be2c89b69c2b068fc378daa952ba7f163c4a11628f55a4df523b3ef91a4949350505050565b6110c58133611637565b50565b5f6110d383836109f4565b611152575f8381526007602090815260408083206001600160a01b03861684529091529020805460ff1916600117905561110a3390565b6001600160a01b0316826001600160a01b0316847f2f8788117e7eff1d82e926ec794901d17c78024a50270940304540a733656f0d60405160405180910390a45060016103e8565b505f6103e8565b5f61116483836109f4565b15611152575f8381526007602090815260408083206001600160a01b0386168085529252808320805460ff1916905551339286917ff6391f5c32d9c69d2a47ea670b442974b53935d1edc7fd64eb21e047a839171b9190a45060016103e8565b6001600160a01b0382166111ed57604051633250574960e11b81525f60048201526024016104d8565b5f6111f983835f610fc9565b90506001600160a01b03811615610598576040516339e3563760e11b81525f60048201526024016104d8565b5f82815260066020526040902061123c8282611e56565b506040518281527ff8e1a15aba9398e019f0b49df1a4fde98ee17ae345cb5f6b5e2c27f5033e8ce79060200160405180910390a15050565b6001600160a01b0382166112a657604051630b61174360e31b81526001600160a01b03831660048201526024016104d8565b6001600160a01b038381165f81815260056020908152604080832094871680845294825291829020805460ff191686151590811790915591519182527f17307eab39ab6107e8899845ad3d59bd9653f200f220920489ca2b5937696c31910160405180910390a3505050565b6001600160a01b0383163b1561143357604051630a85bd0160e11b81526001600160a01b0384169063150b7a0290611354908890889087908790600401611fa6565b6020604051808303815f875af192505050801561138e575060408051601f3d908101601f1916820190925261138b91810190611fe2565b60015b6113f5573d8080156113bb576040519150601f19603f3d011682016040523d82523d5f602084013e6113c0565b606091505b5080515f036113ed57604051633250574960e11b81526001600160a01b03851660048201526024016104d8565b805181602001fd5b6001600160e01b03198116630a85bd0160e11b1461143157604051633250574960e11b81526001600160a01b03851660048201526024016104d8565b505b5050505050565b606061144582610f84565b505f61145b60408051602081019091525f815290565b90505f8151116114795760405180602001604052805f8152506114a4565b8061148384611670565b604051602001611494929190611f92565b6040516020818303038152906040525b9392505050565b5f6001600160e01b03198216632483248360e11b14806103e857506103e882611700565b80806114e357506001600160a01b03821615155b156115a4575f6114f284610f84565b90506001600160a01b0383161580159061151e5750826001600160a01b0316816001600160a01b031614155b8015611531575061152f8184610f33565b155b1561155a5760405163a9fbf51f60e01b81526001600160a01b03841660048201526024016104d8565b81156115a25783856001600160a01b0316826001600160a01b03167f8c5be1e5ebec7d5bd14f71427d1e84f3dd0314c0f7b2291e5b200ac8c7c3b92560405160405180910390a45b505b50505f90815260046020526040902080546001600160a01b0319166001600160a01b0392909216919091179055565b6115de83838361174f565b610598576001600160a01b03831661160c57604051637e27328960e01b8152600481018290526024016104d8565b60405163177e802f60e01b81526001600160a01b0383166004820152602481018290526044016104d8565b61164182826109f4565b6104af5760405163e2517d3f60e01b81526001600160a01b0382166004820152602481018390526044016104d8565b60605f61167c836117b0565b60010190505f8167ffffffffffffffff81111561169b5761169b611a17565b6040519080825280601f01601f1916602001820160405280156116c5576020820181803683370190505b5090508181016020015b5f19016f181899199a1a9b1b9c1cb0b131b232b360811b600a86061a8153600a85049450846116cf57509392505050565b5f6001600160e01b031982166380ac58cd60e01b148061173057506001600160e01b03198216635b5e139f60e01b145b806103e857506301ffc9a760e01b6001600160e01b03198316146103e8565b5f6001600160a01b03831615801590610ea85750826001600160a01b0316846001600160a01b0316148061178857506117888484610f33565b80610ea85750505f908152600460205260409020546001600160a01b03908116911614919050565b5f8072184f03e93ff9f4daa797ed6e38ed64bf6a1f0160401b83106117ee5772184f03e93ff9f4daa797ed6e38ed64bf6a1f0160401b830492506040015b6d04ee2d6d415b85acef8100000000831061181a576d04ee2d6d415b85acef8100000000830492506020015b662386f26fc10000831061183857662386f26fc10000830492506010015b6305f5e1008310611850576305f5e100830492506008015b612710831061186457612710830492506004015b60648310611876576064830492506002015b600a83106103e85760010192915050565b6001600160e01b0319811681146110c5575f80fd5b5f602082840312156118ac575f80fd5b81356114a481611887565b5f81518084528060208401602086015e5f602082860101526020601f19601f83011685010191505092915050565b602081525f6114a460208301846118b7565b5f60208284031215611907575f80fd5b5035919050565b80356001600160a01b0381168114611924575f80fd5b919050565b5f806040838503121561193a575f80fd5b6119438361190e565b946020939093013593505050565b5f805f60608486031215611963575f80fd5b61196c8461190e565b925061197a6020850161190e565b9150604084013590509250925092565b5f806040838503121561199b575f80fd5b823591506119ab6020840161190e565b90509250929050565b5f80604083850312156119c5575f80fd5b50508035926020909101359150565b602080825282518282018190525f9190848201906040850190845b81811015611a0b578351835292840192918401916001016119ef565b50909695505050505050565b634e487b7160e01b5f52604160045260245ffd5b5f67ffffffffffffffff80841115611a4557611a45611a17565b604051601f8501601f19908116603f01168101908282118183101715611a6d57611a6d611a17565b81604052809350858152868686011115611a85575f80fd5b858560208301375f602087830101525050509392505050565b5f82601f830112611aad575f80fd5b6114a483833560208501611a2b565b5f805f805f8060c08789031215611ad1575f80fd5b611ada8761190e565b9550602087013567ffffffffffffffff80821115611af6575f80fd5b611b028a838b01611a9e565b9650604089013595506060890135915080821115611b1e575f80fd5b611b2a8a838b01611a9e565b94506080890135915080821115611b3f575f80fd5b611b4b8a838b01611a9e565b935060a0890135915080821115611b60575f80fd5b50611b6d89828a01611a9e565b9150509295509295509295565b5f8060408385031215611b8b575f80fd5b82359150602083013567ffffffffffffffff811115611ba8575f80fd5b611bb485828601611a9e565b9150509250929050565b5f60208284031215611bce575f80fd5b6114a48261190e565b5f8060408385031215611be8575f80fd5b611bf18361190e565b915060208301358015158114611c05575f80fd5b809150509250929050565b602081525f825160e06020840152611c2c6101008401826118b7565b9050602084015160408401526040840151601f1980858403016060860152611c5483836118b7565b92506060860151608086015260808601519150808584030160a086015250611c7c82826118b7565b91505060a0840151151560c084015260c084015160e08401528091505092915050565b5f805f8060808587031215611cb2575f80fd5b611cbb8561190e565b9350611cc96020860161190e565b925060408501359150606085013567ffffffffffffffff811115611ceb575f80fd5b8501601f81018713611cfb575f80fd5b611d0a87823560208401611a2b565b91505092959194509250565b5f8060408385031215611d27575f80fd5b611d308361190e565b91506119ab6020840161190e565b600181811c90821680611d5257607f821691505b602082108103611d7057634e487b7160e01b5f52602260045260245ffd5b50919050565b634e487b7160e01b5f52601160045260245ffd5b80820281158282048414176103e8576103e8611d76565b818103818111156103e8576103e8611d76565b808201808211156103e8576103e8611d76565b634e487b7160e01b5f52603260045260245ffd5b5f60018201611dec57611dec611d76565b5060010190565b5f82611e0d57634e487b7160e01b5f52601260045260245ffd5b500490565b601f82111561059857805f5260205f20601f840160051c81016020851015611e375750805b601f840160051c820191505b81811015611433575f8155600101611e43565b815167ffffffffffffffff811115611e7057611e70611a17565b611e8481611e7e8454611d3e565b84611e12565b602080601f831160018114611eb7575f8415611ea05750858301515b5f19600386901b1c1916600185901b178555611431565b5f85815260208120601f198616915b82811015611ee557888601518255948401946001909101908401611ec6565b5085821015611f0257878501515f19600388901b60f8161c191681555b5050505050600190811b01905550565b604081525f611f2460408301856118b7565b90508260208301529392505050565b6020808252601690820152754365727469666963617420696e74726f757661626c6560501b604082015260600190565b828152604060208201525f610ea860408301846118b7565b5f81518060208401855e5f93019283525090919050565b5f610ea8611fa08386611f7b565b84611f7b565b6001600160a01b03858116825284166020820152604081018390526080606082018190525f90611fd8908301846118b7565b9695505050505050565b5f60208284031215611ff2575f80fd5b81516114a48161188756fea2646970667358221220b017630e0e8452d49b64f0768bf0cc0fac9fc1fa67332988d0f7e6fa0959f10164736f6c63430008190033",
        "nonce": "0xf",
        "chainId": "0xa869"
      },
      "additionalContracts": [],
      "isFixedGasLimit": false
    },
    {
      "hash": "0x4a089dc2a88a56fedc1d864b21a7807ed83c1fd1892fabe33f5e4b039c61fa33",
      "transactionType": "CALL",
      "contractName": "AcademicCertificateNFT",
      "contractAddress": "0x5f23ed17783d21cfd770051547a7eac0952bf10a",
      "function": "mintCertificate(address,string,uint256,string,string,string)",
      "arguments": [
        "0x1A2cDc9Ea7dFc55aeaDb314bB8C3b09E938c989b",
        "Theo Samarasinghe",
        "2025001",
        "Master - Ingenierie de la Blockchain",
        "Mention - Très Bien",
        "https://ipfs.io/ipfs/hash_du_certificat"
      ],
      "transaction": {
        "from": "0x1a2cdc9ea7dfc55aeadb314bb8c3b09e938c989b",
        "to": "0x5f23ed17783d21cfd770051547a7eac0952bf10a",
        "gas": "0x851c6",
        "value": "0x0",
        "input": "0x689f76860000000000000000000000001a2cdc9ea7dfc55aeadb314bb8c3b09e938c989b00000000000000000000000000000000000000000000000000000000000000c000000000000000000000000000000000000000000000000000000000001ee6290000000000000000000000000000000000000000000000000000000000000100000000000000000000000000000000000000000000000000000000000000016000000000000000000000000000000000000000000000000000000000000001a000000000000000000000000000000000000000000000000000000000000000115468656f2053616d61726173696e67686500000000000000000000000000000000000000000000000000000000000000000000000000000000000000000000244d6173746572202d20496e67656e6965726965206465206c6120426c6f636b636861696e0000000000000000000000000000000000000000000000000000000000000000000000000000000000000000000000000000000000000000000000144d656e74696f6e202d205472c3a873204269656e000000000000000000000000000000000000000000000000000000000000000000000000000000000000002768747470733a2f2f697066732e696f2f697066732f686173685f64755f6365727469666963617400000000000000000000000000000000000000000000000000",
        "nonce": "0x10",
        "chainId": "0xa869"
      },
      "additionalContracts": [],
      "isFixedGasLimit": false
    },
    {
      "hash": "0x979749b043a176ca2a5b5c3de3163f721519c90a7b608a3a673309c7b62b56f5",
      "transactionType": "CALL",
      "contractName": "AcademicCertificateNFT",
      "contractAddress": "0x5f23ed17783d21cfd770051547a7eac0952bf10a",
      "function": "mintCertificate(address,string,uint256,string,string,string)",
      "arguments": [
        "0x1A2cDc9Ea7dFc55aeaDb314bB8C3b09E938c989b",
        "Alice Dupont",
        "2025002",
        "Master - Architecture des Logiciels",
        "Mention - Bien",
        "https://ipfs.io/ipfs/hash_du_certificat_alice"
      ],
      "transaction": {
        "from": "0x1a2cdc9ea7dfc55aeadb314bb8c3b09e938c989b",
        "to": "0x5f23ed17783d21cfd770051547a7eac0952bf10a",
        "gas": "0x8043b",
        "value": "0x0",
        "input": "0x689f76860000000000000000000000001a2cdc9ea7dfc55aeadb314bb8c3b09e938c989b00000000000000000000000000000000000000000000000000000000000000c000000000000000000000000000000000000000000000000000000000001ee62a0000000000000000000000000000000000000000000000000000000000000100000000000000000000000000000000000000000000000000000000000000016000000000000000000000000000000000000000000000000000000000000001a0000000000000000000000000000000000000000000000000000000000000000c416c696365204475706f6e74000000000000000000000000000000000000000000000000000000000000000000000000000000000000000000000000000000234d6173746572202d2041726368697465637475726520646573204c6f67696369656c730000000000000000000000000000000000000000000000000000000000000000000000000000000000000000000000000000000000000000000000000e4d656e74696f6e202d204269656e000000000000000000000000000000000000000000000000000000000000000000000000000000000000000000000000002d68747470733a2f2f697066732e696f2f697066732f686173685f64755f636572746966696361745f616c69636500000000000000000000000000000000000000",
        "nonce": "0x11",
        "chainId": "0xa869"
      },
      "additionalContracts": [],
      "isFixedGasLimit": false
    },
    {
      "hash": "0x04eaffd2101beac6c6c70bac57f18796b99548190f1ef485c0664ba64e7b9604",
      "transactionType": "CALL",
      "contractName": "AcademicCertificateNFT",
      "contractAddress": "0x5f23ed17783d21cfd770051547a7eac0952bf10a",
      "function": "mintCertificate(address,string,uint256,string,string,string)",
      "arguments": [
        "0x1A2cDc9Ea7dFc55aeaDb314bB8C3b09E938c989b",
        "Bob Martin",
        "2025003",
        "Master - Ingenierie Mobile et Objets Connectes",
        "Mention - Assez Bien",
        "https://ipfs.io/ipfs/hash_du_certificat_bob"
      ],
      "transaction": {
        "from": "0x1a2cdc9ea7dfc55aeadb314bb8c3b09e938c989b",
        "to": "0x5f23ed17783d21cfd770051547a7eac0952bf10a",
        "gas": "0x80513",
        "value": "0x0",
        "input": "0x689f76860000000000000000000000001a2cdc9ea7dfc55aeadb314bb8c3b09e938c989b00000000000000000000000000000000000000000000000000000000000000c000000000000000000000000000000000000000000000000000000000001ee62b0000000000000000000000000000000000000000000000000000000000000100000000000000000000000000000000000000000000000000000000000000016000000000000000000000000000000000000000000000000000000000000001a0000000000000000000000000000000000000000000000000000000000000000a426f62204d617274696e00000000000000000000000000000000000000000000000000000000000000000000000000000000000000000000000000000000002e4d6173746572202d20496e67656e6965726965204d6f62696c65206574204f626a65747320436f6e6e656374657300000000000000000000000000000000000000000000000000000000000000000000000000000000000000000000000000144d656e74696f6e202d20417373657a204269656e000000000000000000000000000000000000000000000000000000000000000000000000000000000000002b68747470733a2f2f697066732e696f2f697066732f686173685f64755f636572746966696361745f626f62000000000000000000000000000000000000000000",
        "nonce": "0x12",
        "chainId": "0xa869"
      },
      "additionalContracts": [],
      "isFixedGasLimit": false
    },
    {
      "hash": "0x7ff4a8e88c0dc5e14b306f76e707ba0d123ebf59f389c046f3c2aa8f387d419f",
      "transactionType": "CALL",
      "contractName": "AcademicCertificateNFT",
      "contractAddress": "0x5f23ed17783d21cfd770051547a7eac0952bf10a",
      "function": "mintCertificate(address,string,uint256,string,string,string)",
      "arguments": [
        "0x1A2cDc9Ea7dFc55aeaDb314bB8C3b09E938c989b",
        "Claire Lefevre",
        "2025004",
        "Master - Intelligence Artificielle et Big Data",
        "Mention - Très Bien",
        "https://ipfs.io/ipfs/hash_du_certificat_claire"
      ],
      "transaction": {
        "from": "0x1a2cdc9ea7dfc55aeadb314bb8c3b09e938c989b",
        "to": "0x5f23ed17783d21cfd770051547a7eac0952bf10a",
        "gas": "0x80587",
        "value": "0x0",
        "input": "0x689f76860000000000000000000000001a2cdc9ea7dfc55aeadb314bb8c3b09e938c989b00000000000000000000000000000000000000000000000000000000000000c000000000000000000000000000000000000000000000000000000000001ee62c0000000000000000000000000000000000000000000000000000000000000100000000000000000000000000000000000000000000000000000000000000016000000000000000000000000000000000000000000000000000000000000001a0000000000000000000000000000000000000000000000000000000000000000e436c61697265204c656665767265000000000000000000000000000000000000000000000000000000000000000000000000000000000000000000000000002e4d6173746572202d20496e74656c6c6967656e6365204172746966696369656c6c6520657420426967204461746100000000000000000000000000000000000000000000000000000000000000000000000000000000000000000000000000144d656e74696f6e202d205472c3a873204269656e000000000000000000000000000000000000000000000000000000000000000000000000000000000000002e68747470733a2f2f697066732e696f2f697066732f686173685f64755f636572746966696361745f636c61697265000000000000000000000000000000000000",
        "nonce": "0x13",
        "chainId": "0xa869"
      },
      "additionalContracts": [],
      "isFixedGasLimit": false
    },
    {
      "hash": "0x5cb3beedd8007d4a91ed378d7466ad4256c5a54d710dd64aaf6652dca9405fed",
      "transactionType": "CALL",
      "contractName": "AcademicCertificateNFT",
      "contractAddress": "0x5f23ed17783d21cfd770051547a7eac0952bf10a",
      "function": "mintCertificate(address,string,uint256,string,string,string)",
      "arguments": [
        "0x1A2cDc9Ea7dFc55aeaDb314bB8C3b09E938c989b",
        "David Chen",
        "2025005",
        "Master - Ingenierie du Web",
        "Mention - Passable",
        "https://ipfs.io/ipfs/hash_du_certificat_david"
      ],
      "transaction": {
        "from": "0x1a2cdc9ea7dfc55aeadb314bb8c3b09e938c989b",
        "to": "0x5f23ed17783d21cfd770051547a7eac0952bf10a",
        "gas": "0x77caa",
        "value": "0x0",
        "input": "0x689f76860000000000000000000000001a2cdc9ea7dfc55aeadb314bb8c3b09e938c989b00000000000000000000000000000000000000000000000000000000000000c000000000000000000000000000000000000000000000000000000000001ee62d000000000000000000000000000000000000000000000000000000000000010000000000000000000000000000000000000000000000000000000000000001400000000000000000000000000000000000000000000000000000000000000180000000000000000000000000000000000000000000000000000000000000000a4461766964204368656e00000000000000000000000000000000000000000000000000000000000000000000000000000000000000000000000000000000001a4d6173746572202d20496e67656e69657269652064752057656200000000000000000000000000000000000000000000000000000000000000000000000000124d656e74696f6e202d205061737361626c650000000000000000000000000000000000000000000000000000000000000000000000000000000000000000002d68747470733a2f2f697066732e696f2f697066732f686173685f64755f636572746966696361745f646176696400000000000000000000000000000000000000",
        "nonce": "0x14",
        "chainId": "0xa869"
      },
      "additionalContracts": [],
      "isFixedGasLimit": false
    }
  ],
  "receipts": [
    {
      "status": "0x1",
      "cumulativeGasUsed": "0x1d9d86",
      "logs": [
        {
          "address": "0x5f23ed17783d21cfd770051547a7eac0952bf10a",
          "topics": [
            "0x2f8788117e7eff1d82e926ec794901d17c78024a50270940304540a733656f0d",
            "0x0000000000000000000000000000000000000000000000000000000000000000",
            "0x0000000000000000000000001a2cdc9ea7dfc55aeadb314bb8c3b09e938c989b",
            "0x0000000000000000000000001a2cdc9ea7dfc55aeadb314bb8c3b09e938c989b"
          ],
          "data": "0x",
          "blockHash": "0x3c231be706ac5884770f746fea6a70c21635e746dd31e77c54d3cc39694ada6b",
          "blockNumber": "0x24372d6",
          "transactionHash": "0x411cab0bcdc4df6647cd705c0c1929cce32b0317805b87ba280bece598804fc1",
          "transactionIndex": "0x0",
          "logIndex": "0x0",
          "removed": false
        },
        {
          "address": "0x5f23ed17783d21cfd770051547a7eac0952bf10a",
          "topics": [
            "0x2f8788117e7eff1d82e926ec794901d17c78024a50270940304540a733656f0d",
            "0x4b90e70a23ad1c016cdba1a015076c2de977e305fcad3881690cafbe99d36190",
            "0x0000000000000000000000001a2cdc9ea7dfc55aeadb314bb8c3b09e938c989b",
            "0x0000000000000000000000001a2cdc9ea7dfc55aeadb314bb8c3b09e938c989b"
          ],
          "data": "0x",
          "blockHash": "0x3c231be706ac5884770f746fea6a70c21635e746dd31e77c54d3cc39694ada6b",
          "blockNumber": "0x24372d6",
          "transactionHash": "0x411cab0bcdc4df6647cd705c0c1929cce32b0317805b87ba280bece598804fc1",
          "transactionIndex": "0x0",
          "logIndex": "0x1",
          "removed": false
        }
      ],
      "logsBloom": "0x00000004000000000000000000000000000000000000000000000000000000000008000000000000000000000000000000000020000000000000000000000000000000000000000000000000000000000000000000000000000000000000000000010000020000000000000000010800000000000000001000000000000000000000000000000000000000000000000000000000004000000000020000000000000000000000000000000000000000000000000000000000001000000000000000000000000000000000000000000000000000000000000100000000000020000000000000000000000002000000000000000000000800000000000000000000",
      "type": "0x2",
      "transactionHash": "0x411cab0bcdc4df6647cd705c0c1929cce32b0317805b87ba280bece598804fc1",
      "transactionIndex": "0x0",
      "blockHash": "0x3c231be706ac5884770f746fea6a70c21635e746dd31e77c54d3cc39694ada6b",
      "blockNumber": "0x24372d6",
      "gasUsed": "0x1d9d86",
      "effectiveGasPrice": "0x9502f900",
      "from": "0x1a2cdc9ea7dfc55aeadb314bb8c3b09e938c989b",
      "to": null,
      "contractAddress": "0x5f23ed17783d21cfd770051547a7eac0952bf10a"
    },
    {
      "status": "0x1",
      "cumulativeGasUsed": "0x605ec",
      "logs": [
        {
          "address": "0x5f23ed17783d21cfd770051547a7eac0952bf10a",
          "topics": [
            "0xddf252ad1be2c89b69c2b068fc378daa952ba7f163c4a11628f55a4df523b3ef",
            "0x0000000000000000000000000000000000000000000000000000000000000000",
            "0x0000000000000000000000001a2cdc9ea7dfc55aeadb314bb8c3b09e938c989b",
            "0x0000000000000000000000000000000000000000000000000000000000000000"
          ],
          "data": "0x",
          "blockHash": "0xe8f4f2267988e48c2140d876f23b25d10afb404a7637c0b73b7f96852e24eec0",
          "blockNumber": "0x24372d7",
          "transactionHash": "0x4a089dc2a88a56fedc1d864b21a7807ed83c1fd1892fabe33f5e4b039c61fa33",
          "transactionIndex": "0x0",
          "logIndex": "0x0",
          "removed": false
        },
        {
          "address": "0x5f23ed17783d21cfd770051547a7eac0952bf10a",
          "topics": [
            "0xf8e1a15aba9398e019f0b49df1a4fde98ee17ae345cb5f6b5e2c27f5033e8ce7"
          ],
          "data": "0x0000000000000000000000000000000000000000000000000000000000000000",
          "blockHash": "0xe8f4f2267988e48c2140d876f23b25d10afb404a7637c0b73b7f96852e24eec0",
          "blockNumber": "0x24372d7",
          "transactionHash": "0x4a089dc2a88a56fedc1d864b21a7807ed83c1fd1892fabe33f5e4b039c61fa33",
          "transactionIndex": "0x0",
          "logIndex": "0x1",
          "removed": false
        },
        {
          "address": "0x5f23ed17783d21cfd770051547a7eac0952bf10a",
          "topics": [
            "0x33d618f03fce777f020754896bd309ec864294c350ab96e273f8706f29df86e5",
            "0x0000000000000000000000000000000000000000000000000000000000000000",
            "0x00000000000000000000000000000000000000000000000000000000001ee629"
          ],
          "data": "0x00000000000000000000000000000000000000000000000000000000000000400000000000000000000000000000000000000000000000000000000067a9c76c00000000000000000000000000000000000000000000000000000000000000244d6173746572202d20496e67656e6965726965206465206c6120426c6f636b636861696e00000000000000000000000000000000000000000000000000000000",
          "blockHash": "0xe8f4f2267988e48c2140d876f23b25d10afb404a7637c0b73b7f96852e24eec0",
          "blockNumber": "0x24372d7",
          "transactionHash": "0x4a089dc2a88a56fedc1d864b21a7807ed83c1fd1892fabe33f5e4b039c61fa33",
          "transactionIndex": "0x0",
          "logIndex": "0x2",
          "removed": false
        }
      ],
      "logsBloom": "0x00000000000000000000000000000000000000000000000000000000000000000008000000000000000000000000000000000080000000000000000000000000000000000000000000000008000000000000004000000000040000000000000000010000020000000000000000010800000000000000001000000010000000000000000020000000000000000000000000000000000000000000020000000000000000000000000000000000000000002000000000000000000000000000008000000102000000000000000000000000000000000000000000000000000020000000000000000000200002000000000000000000000000000000000000040000",
      "type": "0x2",
      "transactionHash": "0x4a089dc2a88a56fedc1d864b21a7807ed83c1fd1892fabe33f5e4b039c61fa33",
      "transactionIndex": "0x0",
      "blockHash": "0xe8f4f2267988e48c2140d876f23b25d10afb404a7637c0b73b7f96852e24eec0",
      "blockNumber": "0x24372d7",
      "gasUsed": "0x605ec",
      "effectiveGasPrice": "0x9502f900",
      "from": "0x1a2cdc9ea7dfc55aeadb314bb8c3b09e938c989b",
      "to": "0x5f23ed17783d21cfd770051547a7eac0952bf10a",
      "contractAddress": null
    },
    {
      "status": "0x1",
      "cumulativeGasUsed": "0xbd3b4",
      "logs": [
        {
          "address": "0x5f23ed17783d21cfd770051547a7eac0952bf10a",
          "topics": [
            "0xddf252ad1be2c89b69c2b068fc378daa952ba7f163c4a11628f55a4df523b3ef",
            "0x0000000000000000000000000000000000000000000000000000000000000000",
            "0x0000000000000000000000001a2cdc9ea7dfc55aeadb314bb8c3b09e938c989b",
            "0x0000000000000000000000000000000000000000000000000000000000000001"
          ],
          "data": "0x",
          "blockHash": "0xe8f4f2267988e48c2140d876f23b25d10afb404a7637c0b73b7f96852e24eec0",
          "blockNumber": "0x24372d7",
          "transactionHash": "0x979749b043a176ca2a5b5c3de3163f721519c90a7b608a3a673309c7b62b56f5",
          "transactionIndex": "0x1",
          "logIndex": "0x3",
          "removed": false
        },
        {
          "address": "0x5f23ed17783d21cfd770051547a7eac0952bf10a",
          "topics": [
            "0xf8e1a15aba9398e019f0b49df1a4fde98ee17ae345cb5f6b5e2c27f5033e8ce7"
          ],
          "data": "0x0000000000000000000000000000000000000000000000000000000000000001",
          "blockHash": "0xe8f4f2267988e48c2140d876f23b25d10afb404a7637c0b73b7f96852e24eec0",
          "blockNumber": "0x24372d7",
          "transactionHash": "0x979749b043a176ca2a5b5c3de3163f721519c90a7b608a3a673309c7b62b56f5",
          "transactionIndex": "0x1",
          "logIndex": "0x4",
          "removed": false
        },
        {
          "address": "0x5f23ed17783d21cfd770051547a7eac0952bf10a",
          "topics": [
            "0x33d618f03fce777f020754896bd309ec864294c350ab96e273f8706f29df86e5",
            "0x0000000000000000000000000000000000000000000000000000000000000001",
            "0x00000000000000000000000000000000000000000000000000000000001ee62a"
          ],
          "data": "0x00000000000000000000000000000000000000000000000000000000000000400000000000000000000000000000000000000000000000000000000067a9c76c00000000000000000000000000000000000000000000000000000000000000234d6173746572202d2041726368697465637475726520646573204c6f67696369656c730000000000000000000000000000000000000000000000000000000000",
          "blockHash": "0xe8f4f2267988e48c2140d876f23b25d10afb404a7637c0b73b7f96852e24eec0",
          "blockNumber": "0x24372d7",
          "transactionHash": "0x979749b043a176ca2a5b5c3de3163f721519c90a7b608a3a673309c7b62b56f5",
          "transactionIndex": "0x1",
          "logIndex": "0x5",
          "removed": false
        }
      ],
      "logsBloom": "0x00000000000000000000000000000000000000000000000000000000000000000008000000000000000000000000000000000080000000000000000400040000000000000000000000000008001000000000000000040000000000000000000000010000020000000000000000010800000004000000001000000010000000000000000020000000000000000000000000000000000000000000020000000000000000000000000000000000000000002000000000000000000000000000008000000002000000000000000000000000000000000000000000000000000060000000000000000000200002000000000000000000000000000000000000040000",
      "type": "0x2",
      "transactionHash": "0x979749b043a176ca2a5b5c3de3163f721519c90a7b608a3a673309c7b62b56f5",
      "transactionIndex": "0x1",
      "blockHash": "0xe8f4f2267988e48c2140d876f23b25d10afb404a7637c0b73b7f96852e24eec0",
      "blockNumber": "0x24372d7",
      "gasUsed": "0x5cdc8",
      "effectiveGasPrice": "0x9502f900",
      "from": "0x1a2cdc9ea7dfc55aeadb314bb8c3b09e938c989b",
      "to": "0x5f23ed17783d21cfd770051547a7eac0952bf10a",
      "contractAddress": null
    },
    {
      "status": "0x1",
      "cumulativeGasUsed": "0x5ce64",
      "logs": [
        {
          "address": "0x5f23ed17783d21cfd770051547a7eac0952bf10a",
          "topics": [
            "0xddf252ad1be2c89b69c2b068fc378daa952ba7f163c4a11628f55a4df523b3ef",
            "0x0000000000000000000000000000000000000000000000000000000000000000",
            "0x0000000000000000000000001a2cdc9ea7dfc55aeadb314bb8c3b09e938c989b",
            "0x0000000000000000000000000000000000000000000000000000000000000002"
          ],
          "data": "0x",
          "blockHash": "0x71ec1a036401fd83a024a9aad7b0134beefbdb3e6d5ac69fc01fc283034069c2",
          "blockNumber": "0x24372d8",
          "transactionHash": "0x04eaffd2101beac6c6c70bac57f18796b99548190f1ef485c0664ba64e7b9604",
          "transactionIndex": "0x0",
          "logIndex": "0x0",
          "removed": false
        },
        {
          "address": "0x5f23ed17783d21cfd770051547a7eac0952bf10a",
          "topics": [
            "0xf8e1a15aba9398e019f0b49df1a4fde98ee17ae345cb5f6b5e2c27f5033e8ce7"
          ],
          "data": "0x0000000000000000000000000000000000000000000000000000000000000002",
          "blockHash": "0x71ec1a036401fd83a024a9aad7b0134beefbdb3e6d5ac69fc01fc283034069c2",
          "blockNumber": "0x24372d8",
          "transactionHash": "0x04eaffd2101beac6c6c70bac57f18796b99548190f1ef485c0664ba64e7b9604",
          "transactionIndex": "0x0",
          "logIndex": "0x1",
          "removed": false
        },
        {
          "address": "0x5f23ed17783d21cfd770051547a7eac0952bf10a",
          "topics": [
            "0x33d618f03fce777f020754896bd309ec864294c350ab96e273f8706f29df86e5",
            "0x0000000000000000000000000000000000000000000000000000000000000002",
            "0x00000000000000000000000000000000000000000000000000000000001ee62b"
          ],
          "data": "0x00000000000000000000000000000000000000000000000000000000000000400000000000000000000000000000000000000000000000000000000067a9c76d000000000000000000000000000000000000000000000000000000000000002e4d6173746572202d20496e67656e6965726965204d6f62696c65206574204f626a65747320436f6e6e6563746573000000000000000000000000000000000000",
          "blockHash": "0x71ec1a036401fd83a024a9aad7b0134beefbdb3e6d5ac69fc01fc283034069c2",
          "blockNumber": "0x24372d8",
          "transactionHash": "0x04eaffd2101beac6c6c70bac57f18796b99548190f1ef485c0664ba64e7b9604",
          "transactionIndex": "0x0",
          "logIndex": "0x2",
          "removed": false
        }
      ],
      "logsBloom": "0x04000000000000000000000000000000000000000000000000040000000000000008000000000000000000000000000000000080000000000000000000000000000000000000000000000008000000000000000000000000000000000000000000010000020000000000000000010800000000000000001000000010000000000000000020000004000000000000000000000000000000000000020000000000000000000000000000000100000000002000000000000000000000000000028000000002000000000000000000000000000000000000000000000000000020000000000000000000200002000000000000000000008000000000000000040000",
      "type": "0x2",
      "transactionHash": "0x04eaffd2101beac6c6c70bac57f18796b99548190f1ef485c0664ba64e7b9604",
      "transactionIndex": "0x0",
      "blockHash": "0x71ec1a036401fd83a024a9aad7b0134beefbdb3e6d5ac69fc01fc283034069c2",
      "blockNumber": "0x24372d8",
      "gasUsed": "0x5ce64",
      "effectiveGasPrice": "0x9502f900",
      "from": "0x1a2cdc9ea7dfc55aeadb314bb8c3b09e938c989b",
      "to": "0x5f23ed17783d21cfd770051547a7eac0952bf10a",
      "contractAddress": null
    },
    {
      "status": "0x1",
      "cumulativeGasUsed": "0xb9d1c",
      "logs": [
        {
          "address": "0x5f23ed17783d21cfd770051547a7eac0952bf10a",
          "topics": [
            "0xddf252ad1be2c89b69c2b068fc378daa952ba7f163c4a11628f55a4df523b3ef",
            "0x0000000000000000000000000000000000000000000000000000000000000000",
            "0x0000000000000000000000001a2cdc9ea7dfc55aeadb314bb8c3b09e938c989b",
            "0x0000000000000000000000000000000000000000000000000000000000000003"
          ],
          "data": "0x",
          "blockHash": "0x71ec1a036401fd83a024a9aad7b0134beefbdb3e6d5ac69fc01fc283034069c2",
          "blockNumber": "0x24372d8",
          "transactionHash": "0x7ff4a8e88c0dc5e14b306f76e707ba0d123ebf59f389c046f3c2aa8f387d419f",
          "transactionIndex": "0x1",
          "logIndex": "0x3",
          "removed": false
        },
        {
          "address": "0x5f23ed17783d21cfd770051547a7eac0952bf10a",
          "topics": [
            "0xf8e1a15aba9398e019f0b49df1a4fde98ee17ae345cb5f6b5e2c27f5033e8ce7"
          ],
          "data": "0x0000000000000000000000000000000000000000000000000000000000000003",
          "blockHash": "0x71ec1a036401fd83a024a9aad7b0134beefbdb3e6d5ac69fc01fc283034069c2",
          "blockNumber": "0x24372d8",
          "transactionHash": "0x7ff4a8e88c0dc5e14b306f76e707ba0d123ebf59f389c046f3c2aa8f387d419f",
          "transactionIndex": "0x1",
          "logIndex": "0x4",
          "removed": false
        },
        {
          "address": "0x5f23ed17783d21cfd770051547a7eac0952bf10a",
          "topics": [
            "0x33d618f03fce777f020754896bd309ec864294c350ab96e273f8706f29df86e5",
            "0x0000000000000000000000000000000000000000000000000000000000000003",
            "0x00000000000000000000000000000000000000000000000000000000001ee62c"
          ],
          "data": "0x00000000000000000000000000000000000000000000000000000000000000400000000000000000000000000000000000000000000000000000000067a9c76d000000000000000000000000000000000000000000000000000000000000002e4d6173746572202d20496e74656c6c6967656e6365204172746966696369656c6c65206574204269672044617461000000000000000000000000000000000000",
          "blockHash": "0x71ec1a036401fd83a024a9aad7b0134beefbdb3e6d5ac69fc01fc283034069c2",
          "blockNumber": "0x24372d8",
          "transactionHash": "0x7ff4a8e88c0dc5e14b306f76e707ba0d123ebf59f389c046f3c2aa8f387d419f",
          "transactionIndex": "0x1",
          "logIndex": "0x5",
          "removed": false
        }
      ],
      "logsBloom": "0x00000000000000000000000000000000000000000400000000000000000000000008000000000000000000000000000000000080020000000000000000000000000000000000000000000008000000000800000000000000000000000000000000010000020000000000000000010800000000000000001000000010000000000000000020000800000000000000000000000000000000000000020000000000000000000000000000000000000000002000000000800000000000000000408000000002000000000000000000000000000000000000000000000000000020000000000000000000200002000000000000000000000000000000000000040000",
      "type": "0x2",
      "transactionHash": "0x7ff4a8e88c0dc5e14b306f76e707ba0d123ebf59f389c046f3c2aa8f387d419f",
      "transactionIndex": "0x1",
      "blockHash": "0x71ec1a036401fd83a024a9aad7b0134beefbdb3e6d5ac69fc01fc283034069c2",
      "blockNumber": "0x24372d8",
      "gasUsed": "0x5ceb8",
      "effectiveGasPrice": "0x9502f900",
      "from": "0x1a2cdc9ea7dfc55aeadb314bb8c3b09e938c989b",
      "to": "0x5f23ed17783d21cfd770051547a7eac0952bf10a",
      "contractAddress": null
    },
    {
      "status": "0x1",
      "cumulativeGasUsed": "0x10bba7",
      "logs": [
        {
          "address": "0x5f23ed17783d21cfd770051547a7eac0952bf10a",
          "topics": [
            "0xddf252ad1be2c89b69c2b068fc378daa952ba7f163c4a11628f55a4df523b3ef",
            "0x0000000000000000000000000000000000000000000000000000000000000000",
            "0x0000000000000000000000001a2cdc9ea7dfc55aeadb314bb8c3b09e938c989b",
            "0x0000000000000000000000000000000000000000000000000000000000000004"
          ],
          "data": "0x",
          "blockHash": "0x71ec1a036401fd83a024a9aad7b0134beefbdb3e6d5ac69fc01fc283034069c2",
          "blockNumber": "0x24372d8",
          "transactionHash": "0x5cb3beedd8007d4a91ed378d7466ad4256c5a54d710dd64aaf6652dca9405fed",
          "transactionIndex": "0x2",
          "logIndex": "0x6",
          "removed": false
        },
        {
          "address": "0x5f23ed17783d21cfd770051547a7eac0952bf10a",
          "topics": [
            "0xf8e1a15aba9398e019f0b49df1a4fde98ee17ae345cb5f6b5e2c27f5033e8ce7"
          ],
          "data": "0x0000000000000000000000000000000000000000000000000000000000000004",
          "blockHash": "0x71ec1a036401fd83a024a9aad7b0134beefbdb3e6d5ac69fc01fc283034069c2",
          "blockNumber": "0x24372d8",
          "transactionHash": "0x5cb3beedd8007d4a91ed378d7466ad4256c5a54d710dd64aaf6652dca9405fed",
          "transactionIndex": "0x2",
          "logIndex": "0x7",
          "removed": false
        },
        {
          "address": "0x5f23ed17783d21cfd770051547a7eac0952bf10a",
          "topics": [
            "0x33d618f03fce777f020754896bd309ec864294c350ab96e273f8706f29df86e5",
            "0x0000000000000000000000000000000000000000000000000000000000000004",
            "0x00000000000000000000000000000000000000000000000000000000001ee62d"
          ],
          "data": "0x00000000000000000000000000000000000000000000000000000000000000400000000000000000000000000000000000000000000000000000000067a9c76d000000000000000000000000000000000000000000000000000000000000001a4d6173746572202d20496e67656e696572696520647520576562000000000000",
          "blockHash": "0x71ec1a036401fd83a024a9aad7b0134beefbdb3e6d5ac69fc01fc283034069c2",
          "blockNumber": "0x24372d8",
          "transactionHash": "0x5cb3beedd8007d4a91ed378d7466ad4256c5a54d710dd64aaf6652dca9405fed",
          "transactionIndex": "0x2",
          "logIndex": "0x8",
          "removed": false
        }
      ],
      "logsBloom": "0x0000000000000000000000000000000000000000000000000000000000000000000800000000000000000000000000000000008000000000000000000000800000000000000000000000000800000000000000000000000000000000000000000c010000020000000000000000010800000000000000001000000010000000000000000020000000000000000000000000000000000000000000020000000000000000000000000000000000000000002000000000000000002000000000008000000002000000000000000200000000000000008000000000000000000020000000000000000000200002000000000000000000000000000000000000040000",
      "type": "0x2",
      "transactionHash": "0x5cb3beedd8007d4a91ed378d7466ad4256c5a54d710dd64aaf6652dca9405fed",
      "transactionIndex": "0x2",
      "blockHash": "0x71ec1a036401fd83a024a9aad7b0134beefbdb3e6d5ac69fc01fc283034069c2",
      "blockNumber": "0x24372d8",
      "gasUsed": "0x51e8b",
      "effectiveGasPrice": "0x9502f900",
      "from": "0x1a2cdc9ea7dfc55aeadb314bb8c3b09e938c989b",
      "to": "0x5f23ed17783d21cfd770051547a7eac0952bf10a",
      "contractAddress": null
    }
  ],
  "libraries": [],
  "pending": [],
  "returns": {},
  "timestamp": 1739179887,
  "chain": 43113,
  "commit": "d555192"
}