{
  "transactions": [
    {
      "hash": "0x8e5f70e7ea5549836a5a7a2e2203125f86475aaa54b6fa977c093aa1ac000773",
      "transactionType": "CREATE",
      "contractName": "AcademicCertificateNFT",
      "contractAddress": "0xc0121389925343d46124719e8e8f5683f4228fbf",
      "function": null,
      "arguments": null,
      "transaction": {
        "from": "0x1a2cdc9ea7dfc55aeadb314bb8c3b09e938c989b",
        "gas": "0x2491af",
        "value": "0x0",
        "input": "0x608060405234801561000f575f80fd5b506040518060400160405280601481526020017f41636164656d6963204469706c6f6d61204e4654000000000000000000000000815250604051806040016040528060078152602001664449504c4f4d4160c81b815250815f90816100749190610206565b5060016100818282610206565b5061009091505f9050336100c1565b506100bb7f4b90e70a23ad1c016cdba1a015076c2de977e305fcad3881690cafbe99d36190336100c1565b506102c5565b5f8281526007602090815260408083206001600160a01b038516845290915281205460ff16610165575f8381526007602090815260408083206001600160a01b03861684529091529020805460ff1916600117905561011d3390565b6001600160a01b0316826001600160a01b0316847f2f8788117e7eff1d82e926ec794901d17c78024a50270940304540a733656f0d60405160405180910390a4506001610168565b505f5b92915050565b634e487b7160e01b5f52604160045260245ffd5b600181811c9082168061019657607f821691505b6020821081036101b457634e487b7160e01b5f52602260045260245ffd5b50919050565b601f82111561020157805f5260205f20601f840160051c810160208510156101df5750805b601f840160051c820191505b818110156101fe575f81556001016101eb565b50505b505050565b81516001600160401b0381111561021f5761021f61016e565b6102338161022d8454610182565b846101ba565b602080601f831160018114610266575f841561024f5750858301515b5f19600386901b1c1916600185901b1785556102bd565b5f85815260208120601f198616915b8281101561029457888601518255948401946001909101908401610275565b50858210156102b157878501515f19600388901b60f8161c191681555b505060018460011b0185555b505050505050565b611e71806102d25f395ff3fe608060405234801561000f575f80fd5b5060043610610187575f3560e01c806370a08231116100d9578063a901fe5e11610093578063c87b56dd1161006e578063c87b56dd1461037a578063d547741f1461038d578063e5a357f5146103a0578063e985e9c5146103c0575f80fd5b8063a901fe5e14610334578063b1466d1d14610354578063b88d4fde14610367575f80fd5b806370a08231146102e45780637843bb79146102f757806391d14854146102ff57806395d89b4114610312578063a217fddf1461031a578063a22cb46514610321575f80fd5b80632a31b5a31161014457806342842e0e1161011f57806342842e0e146102985780636352211e146102ab578063689f7686146102be5780636c93ea46146102d1575f80fd5b80632a31b5a31461024b5780632f2ff15d1461027257806336568abe14610285575f80fd5b806301ffc9a71461018b57806306fdde03146101b3578063081812fc146101c8578063095ea7b3146101f357806323b872dd14610208578063248a9ca31461021b575b5f80fd5b61019e610199366004611738565b6103d3565b60405190151581526020015b60405180910390f35b6101bb6103e3565b6040516101aa9190611781565b6101db6101d6366004611793565b610472565b6040516001600160a01b0390911681526020016101aa565b6102066102013660046117c5565b610499565b005b6102066102163660046117ed565b6104a8565b61023d610229366004611793565b5f9081526007602052604090206001015490565b6040519081526020016101aa565b61023d7f4b90e70a23ad1c016cdba1a015076c2de977e305fcad3881690cafbe99d3619081565b610206610280366004611826565b610536565b610206610293366004611826565b61055a565b6102066102a63660046117ed565b610592565b6101db6102b9366004611793565b6105ac565b61023d6102cc3660046118f5565b6105b6565b6102066102df3660046119b3565b610745565b61023d6102f23660046119f7565b61084b565b60085461023d565b61019e61030d366004611826565b610890565b6101bb6108ba565b61023d5f81565b61020661032f366004611a10565b6108c9565b610347610342366004611793565b6108d4565b6040516101aa9190611a49565b6102066103623660046119b3565b610b40565b610206610375366004611ad8565b610c29565b6101bb610388366004611793565b610c41565b61020661039b366004611826565b610d4c565b6103b36103ae366004611793565b610d70565b6040516101aa9190611b4f565b61019e6103ce366004611b92565b610dcf565b5f6103dd82610dfc565b92915050565b60605f80546103f190611bba565b80601f016020809104026020016040519081016040528092919081815260200182805461041d90611bba565b80156104685780601f1061043f57610100808354040283529160200191610468565b820191905f5260205f20905b81548152906001019060200180831161044b57829003601f168201915b5050505050905090565b5f61047c82610e20565b505f828152600460205260409020546001600160a01b03166103dd565b6104a4828233610e58565b5050565b6001600160a01b0382166104d657604051633250574960e11b81525f60048201526024015b60405180910390fd5b5f6104e2838333610e65565b9050836001600160a01b0316816001600160a01b031614610530576040516364283d7b60e01b81526001600160a01b03808616600483015260248201849052821660448201526064016104cd565b50505050565b5f8281526007602052604090206001015461055081610f57565b6105308383610f64565b6001600160a01b03811633146105835760405163334bd91960e11b815260040160405180910390fd5b61058d8282610ff5565b505050565b61058d83838360405180602001604052805f815250610c29565b5f6103dd82610e20565b5f7f4b90e70a23ad1c016cdba1a015076c2de977e305fcad3881690cafbe99d361906105e181610f57565b600880545f91826105f183611c06565b9190505590506040518060e001604052808981526020018881526020018781526020016301e13380426106249190611c1e565b610630906107b2611c3d565b815260208082018890526001604080840191909152426060909301929092525f848152600990915220815181906106679082611c94565b5060208201516001820155604082015160028201906106869082611c94565b5060608201516003820155608082015160048201906106a59082611c94565b5060a082015160058201805460ff191691151591909117905560c0909101516006909101555f878152600a60209081526040822080546001810182559083529120018190556106f48982611060565b6106fe81856110c1565b86817f33d618f03fce777f020754896bd309ec864294c350ab96e273f8706f29df86e58842604051610731929190611d50565b60405180910390a398975050505050505050565b7f4b90e70a23ad1c016cdba1a015076c2de977e305fcad3881690cafbe99d3619061076f81610f57565b5f838152600260205260409020546001600160a01b03166107a25760405162461bcd60e51b81526004016104cd90611d71565b5f8381526009602052604090206005015460ff166108025760405162461bcd60e51b815260206004820152601a60248201527f4365206365727469666963617420657374207265766f7175657200000000000060448201526064016104cd565b61080c83836110c1565b827fcfbfcc21605b20d720137ae3e0152b9601040bb9a22eec394c3897990da97539834260405161083e929190611d50565b60405180910390a2505050565b5f6001600160a01b038216610875576040516322718ad960e21b81525f60048201526024016104cd565b506001600160a01b03165f9081526003602052604090205490565b5f9182526007602090815260408084206001600160a01b0393909316845291905290205460ff1690565b6060600180546103f190611bba565b6104a4338383611110565b6109126040518060e00160405280606081526020015f8152602001606081526020015f8152602001606081526020015f151581526020015f81525090565b5f828152600260205260409020546001600160a01b03166109455760405162461bcd60e51b81526004016104cd90611d71565b5f8281526009602052604090819020815160e0810190925280548290829061096c90611bba565b80601f016020809104026020016040519081016040528092919081815260200182805461099890611bba565b80156109e35780601f106109ba576101008083540402835291602001916109e3565b820191905f5260205f20905b8154815290600101906020018083116109c657829003601f168201915b5050505050815260200160018201548152602001600282018054610a0690611bba565b80601f0160208091040260200160405190810160405280929190818152602001828054610a3290611bba565b8015610a7d5780601f10610a5457610100808354040283529160200191610a7d565b820191905f5260205f20905b815481529060010190602001808311610a6057829003601f168201915b5050505050815260200160038201548152602001600482018054610aa090611bba565b80601f0160208091040260200160405190810160405280929190818152602001828054610acc90611bba565b8015610b175780601f10610aee57610100808354040283529160200191610b17565b820191905f5260205f20905b815481529060010190602001808311610afa57829003601f168201915b5050509183525050600582015460ff161515602082015260069091015460409091015292915050565b5f610b4a81610f57565b5f838152600260205260409020546001600160a01b0316610b7d5760405162461bcd60e51b81526004016104cd90611d71565b5f8381526009602052604090206005015460ff16610bdd5760405162461bcd60e51b815260206004820152601860248201527f436572746966696361742064656a61207265766f71756572000000000000000060448201526064016104cd565b5f8381526009602052604090819020600501805460ff191690555183907feabe56bb1d954cc547a259b3ee0e6093882c585dc777b92351571cf5f810b9489061083e9042908690611da1565b610c348484846104a8565b61053033858585856111ae565b6060610c4c82610e20565b505f8281526006602052604081208054610c6590611bba565b80601f0160208091040260200160405190810160405280929190818152602001828054610c9190611bba565b8015610cdc5780601f10610cb357610100808354040283529160200191610cdc565b820191905f5260205f20905b815481529060010190602001808311610cbf57829003601f168201915b505050505090505f610cf860408051602081019091525f815290565b905080515f03610d09575092915050565b815115610d3b578082604051602001610d23929190611dd0565b60405160208183030381529060405292505050919050565b610d44846112d6565b949350505050565b5f82815260076020526040902060010154610d6681610f57565b6105308383610ff5565b5f818152600a6020908152604091829020805483518184028101840190945280845260609392830182828015610dc357602002820191905f5260205f20905b815481526020019060010190808311610daf575b50505050509050919050565b6001600160a01b039182165f90815260056020908152604080832093909416825291909152205460ff1690565b5f6001600160e01b03198216637965db0b60e01b14806103dd57506103dd82611347565b5f818152600260205260408120546001600160a01b0316806103dd57604051637e27328960e01b8152600481018490526024016104cd565b61058d838383600161136b565b5f828152600260205260408120546001600160a01b0390811690831615610e9157610e9181848661146f565b6001600160a01b03811615610ecb57610eac5f855f8061136b565b6001600160a01b0381165f90815260036020526040902080545f190190555b6001600160a01b03851615610ef9576001600160a01b0385165f908152600360205260409020805460010190555b5f8481526002602052604080822080546001600160a01b0319166001600160a01b0389811691821790925591518793918516917fddf252ad1be2c89b69c2b068fc378daa952ba7f163c4a11628f55a4df523b3ef91a4949350505050565b610f6181336114d3565b50565b5f610f6f8383610890565b610fee575f8381526007602090815260408083206001600160a01b03861684529091529020805460ff19166001179055610fa63390565b6001600160a01b0316826001600160a01b0316847f2f8788117e7eff1d82e926ec794901d17c78024a50270940304540a733656f0d60405160405180910390a45060016103dd565b505f6103dd565b5f6110008383610890565b15610fee575f8381526007602090815260408083206001600160a01b0386168085529252808320805460ff1916905551339286917ff6391f5c32d9c69d2a47ea670b442974b53935d1edc7fd64eb21e047a839171b9190a45060016103dd565b6001600160a01b03821661108957604051633250574960e11b81525f60048201526024016104cd565b5f61109583835f610e65565b90506001600160a01b0381161561058d576040516339e3563760e11b81525f60048201526024016104cd565b5f8281526006602052604090206110d88282611c94565b506040518281527ff8e1a15aba9398e019f0b49df1a4fde98ee17ae345cb5f6b5e2c27f5033e8ce79060200160405180910390a15050565b6001600160a01b03821661114257604051630b61174360e31b81526001600160a01b03831660048201526024016104cd565b6001600160a01b038381165f81815260056020908152604080832094871680845294825291829020805460ff191686151590811790915591519182527f17307eab39ab6107e8899845ad3d59bd9653f200f220920489ca2b5937696c31910160405180910390a3505050565b6001600160a01b0383163b156112cf57604051630a85bd0160e11b81526001600160a01b0384169063150b7a02906111f0908890889087908790600401611de4565b6020604051808303815f875af192505050801561122a575060408051601f3d908101601f1916820190925261122791810190611e20565b60015b611291573d808015611257576040519150601f19603f3d011682016040523d82523d5f602084013e61125c565b606091505b5080515f0361128957604051633250574960e11b81526001600160a01b03851660048201526024016104cd565b805181602001fd5b6001600160e01b03198116630a85bd0160e11b146112cd57604051633250574960e11b81526001600160a01b03851660048201526024016104cd565b505b5050505050565b60606112e182610e20565b505f6112f760408051602081019091525f815290565b90505f8151116113155760405180602001604052805f815250611340565b8061131f8461150c565b604051602001611330929190611dd0565b6040516020818303038152906040525b9392505050565b5f6001600160e01b03198216632483248360e11b14806103dd57506103dd8261159c565b808061137f57506001600160a01b03821615155b15611440575f61138e84610e20565b90506001600160a01b038316158015906113ba5750826001600160a01b0316816001600160a01b031614155b80156113cd57506113cb8184610dcf565b155b156113f65760405163a9fbf51f60e01b81526001600160a01b03841660048201526024016104cd565b811561143e5783856001600160a01b0316826001600160a01b03167f8c5be1e5ebec7d5bd14f71427d1e84f3dd0314c0f7b2291e5b200ac8c7c3b92560405160405180910390a45b505b50505f90815260046020526040902080546001600160a01b0319166001600160a01b0392909216919091179055565b61147a8383836115eb565b61058d576001600160a01b0383166114a857604051637e27328960e01b8152600481018290526024016104cd565b60405163177e802f60e01b81526001600160a01b0383166004820152602481018290526044016104cd565b6114dd8282610890565b6104a45760405163e2517d3f60e01b81526001600160a01b0382166004820152602481018390526044016104cd565b60605f6115188361164c565b60010190505f8167ffffffffffffffff81111561153757611537611850565b6040519080825280601f01601f191660200182016040528015611561576020820181803683370190505b5090508181016020015b5f19016f181899199a1a9b1b9c1cb0b131b232b360811b600a86061a8153600a850494508461156b57509392505050565b5f6001600160e01b031982166380ac58cd60e01b14806115cc57506001600160e01b03198216635b5e139f60e01b145b806103dd57506301ffc9a760e01b6001600160e01b03198316146103dd565b5f6001600160a01b03831615801590610d445750826001600160a01b0316846001600160a01b0316148061162457506116248484610dcf565b80610d445750505f908152600460205260409020546001600160a01b03908116911614919050565b5f8072184f03e93ff9f4daa797ed6e38ed64bf6a1f0160401b831061168a5772184f03e93ff9f4daa797ed6e38ed64bf6a1f0160401b830492506040015b6d04ee2d6d415b85acef810000000083106116b6576d04ee2d6d415b85acef8100000000830492506020015b662386f26fc1000083106116d457662386f26fc10000830492506010015b6305f5e10083106116ec576305f5e100830492506008015b612710831061170057612710830492506004015b60648310611712576064830492506002015b600a83106103dd5760010192915050565b6001600160e01b031981168114610f61575f80fd5b5f60208284031215611748575f80fd5b813561134081611723565b5f81518084528060208401602086015e5f602082860101526020601f19601f83011685010191505092915050565b602081525f6113406020830184611753565b5f602082840312156117a3575f80fd5b5035919050565b80356001600160a01b03811681146117c0575f80fd5b919050565b5f80604083850312156117d6575f80fd5b6117df836117aa565b946020939093013593505050565b5f805f606084860312156117ff575f80fd5b611808846117aa565b9250611816602085016117aa565b9150604084013590509250925092565b5f8060408385031215611837575f80fd5b82359150611847602084016117aa565b90509250929050565b634e487b7160e01b5f52604160045260245ffd5b5f67ffffffffffffffff8084111561187e5761187e611850565b604051601f8501601f19908116603f011681019082821181831017156118a6576118a6611850565b816040528093508581528686860111156118be575f80fd5b858560208301375f602087830101525050509392505050565b5f82601f8301126118e6575f80fd5b61134083833560208501611864565b5f805f805f8060c0878903121561190a575f80fd5b611913876117aa565b9550602087013567ffffffffffffffff8082111561192f575f80fd5b61193b8a838b016118d7565b9650604089013595506060890135915080821115611957575f80fd5b6119638a838b016118d7565b94506080890135915080821115611978575f80fd5b6119848a838b016118d7565b935060a0890135915080821115611999575f80fd5b506119a689828a016118d7565b9150509295509295509295565b5f80604083850312156119c4575f80fd5b82359150602083013567ffffffffffffffff8111156119e1575f80fd5b6119ed858286016118d7565b9150509250929050565b5f60208284031215611a07575f80fd5b611340826117aa565b5f8060408385031215611a21575f80fd5b611a2a836117aa565b915060208301358015158114611a3e575f80fd5b809150509250929050565b602081525f825160e06020840152611a65610100840182611753565b9050602084015160408401526040840151601f1980858403016060860152611a8d8383611753565b92506060860151608086015260808601519150808584030160a086015250611ab58282611753565b91505060a0840151151560c084015260c084015160e08401528091505092915050565b5f805f8060808587031215611aeb575f80fd5b611af4856117aa565b9350611b02602086016117aa565b925060408501359150606085013567ffffffffffffffff811115611b24575f80fd5b8501601f81018713611b34575f80fd5b611b4387823560208401611864565b91505092959194509250565b602080825282518282018190525f9190848201906040850190845b81811015611b8657835183529284019291840191600101611b6a565b50909695505050505050565b5f8060408385031215611ba3575f80fd5b611bac836117aa565b9150611847602084016117aa565b600181811c90821680611bce57607f821691505b602082108103611bec57634e487b7160e01b5f52602260045260245ffd5b50919050565b634e487b7160e01b5f52601160045260245ffd5b5f60018201611c1757611c17611bf2565b5060010190565b5f82611c3857634e487b7160e01b5f52601260045260245ffd5b500490565b808201808211156103dd576103dd611bf2565b601f82111561058d57805f5260205f20601f840160051c81016020851015611c755750805b601f840160051c820191505b818110156112cf575f8155600101611c81565b815167ffffffffffffffff811115611cae57611cae611850565b611cc281611cbc8454611bba565b84611c50565b602080601f831160018114611cf5575f8415611cde5750858301515b5f19600386901b1c1916600185901b1785556112cd565b5f85815260208120601f198616915b82811015611d2357888601518255948401946001909101908401611d04565b5085821015611d4057878501515f19600388901b60f8161c191681555b5050505050600190811b01905550565b604081525f611d626040830185611753565b90508260208301529392505050565b6020808252601690820152754365727469666963617420696e74726f757661626c6560501b604082015260600190565b828152604060208201525f610d446040830184611753565b5f81518060208401855e5f93019283525090919050565b5f610d44611dde8386611db9565b84611db9565b6001600160a01b03858116825284166020820152604081018390526080606082018190525f90611e1690830184611753565b9695505050505050565b5f60208284031215611e30575f80fd5b81516113408161172356fea2646970667358221220f6887e077fe7638b1d7372e29ec8acbe36598f8881de201161af2f48b7722e2164736f6c63430008190033",
        "nonce": "0x15",
        "chainId": "0xa869"
      },
      "additionalContracts": [],
      "isFixedGasLimit": false
    },
    {
      "hash": "0x9fd7c610717892d27ea86036c1b739edb177d78aa0ba793a794b65bc677eeb74",
      "transactionType": "CALL",
      "contractName": "AcademicCertificateNFT",
      "contractAddress": "0xc0121389925343d46124719e8e8f5683f4228fbf",
      "function": "mintCertificate(address,string,uint256,string,string,string)",
      "arguments": [
        "0x1A2cDc9Ea7dFc55aeaDb314bB8C3b09E938c989b",
        "Theo Samarasinghe",
        "2025001",
        "Master - Ingenierie de la Blockchain",
        "Mention - Très Bien",
        "https://ipfs.io/ipfs/hash_du_certificat"
      ],
      "transaction": {
        "from": "0x1a2cdc9ea7dfc55aeadb314bb8c3b09e938c989b",
        "to": "0xc0121389925343d46124719e8e8f5683f4228fbf",
        "gas": "0x851a8",
        "value": "0x0",
        "input": "0x689f76860000000000000000000000001a2cdc9ea7dfc55aeadb314bb8c3b09e938c989b00000000000000000000000000000000000000000000000000000000000000c000000000000000000000000000000000000000000000000000000000001ee6290000000000000000000000000000000000000000000000000000000000000100000000000000000000000000000000000000000000000000000000000000016000000000000000000000000000000000000000000000000000000000000001a000000000000000000000000000000000000000000000000000000000000000115468656f2053616d61726173696e67686500000000000000000000000000000000000000000000000000000000000000000000000000000000000000000000244d6173746572202d20496e67656e6965726965206465206c6120426c6f636b636861696e0000000000000000000000000000000000000000000000000000000000000000000000000000000000000000000000000000000000000000000000144d656e74696f6e202d205472c3a873204269656e000000000000000000000000000000000000000000000000000000000000000000000000000000000000002768747470733a2f2f697066732e696f2f697066732f686173685f64755f6365727469666963617400000000000000000000000000000000000000000000000000",
        "nonce": "0x16",
        "chainId": "0xa869"
      },
      "additionalContracts": [],
      "isFixedGasLimit": false
    },
    {
      "hash": "0x82a1251db74d56f4dd0cb62b7cf65ca733c708a9578065565e0506b6157ceb11",
      "transactionType": "CALL",
      "contractName": "AcademicCertificateNFT",
      "contractAddress": "0xc0121389925343d46124719e8e8f5683f4228fbf",
      "function": "mintCertificate(address,string,uint256,string,string,string)",
      "arguments": [
        "0x1A2cDc9Ea7dFc55aeaDb314bB8C3b09E938c989b",
        "Alice Dupont",
        "2025002",
        "Master - Architecture des Logiciels",
        "Mention - Bien",
        "https://ipfs.io/ipfs/hash_du_certificat_alice"
      ],
      "transaction": {
        "from": "0x1a2cdc9ea7dfc55aeadb314bb8c3b09e938c989b",
        "to": "0xc0121389925343d46124719e8e8f5683f4228fbf",
        "gas": "0x87cd4",
        "value": "0x0",
        "input": "0x689f76860000000000000000000000001a2cdc9ea7dfc55aeadb314bb8c3b09e938c989b00000000000000000000000000000000000000000000000000000000000000c000000000000000000000000000000000000000000000000000000000001ee62a0000000000000000000000000000000000000000000000000000000000000100000000000000000000000000000000000000000000000000000000000000016000000000000000000000000000000000000000000000000000000000000001a0000000000000000000000000000000000000000000000000000000000000000c416c696365204475706f6e74000000000000000000000000000000000000000000000000000000000000000000000000000000000000000000000000000000234d6173746572202d2041726368697465637475726520646573204c6f67696369656c730000000000000000000000000000000000000000000000000000000000000000000000000000000000000000000000000000000000000000000000000e4d656e74696f6e202d204269656e000000000000000000000000000000000000000000000000000000000000000000000000000000000000000000000000002d68747470733a2f2f697066732e696f2f697066732f686173685f64755f636572746966696361745f616c69636500000000000000000000000000000000000000",
        "nonce": "0x17",
        "chainId": "0xa869"
      },
      "additionalContracts": [],
      "isFixedGasLimit": false
    },
    {
      "hash": "0x0104bcb31c9348440f7d4c32fb613e4a5495b615174097a21fb190479426663e",
      "transactionType": "CALL",
      "contractName": "AcademicCertificateNFT",
      "contractAddress": "0xc0121389925343d46124719e8e8f5683f4228fbf",
      "function": "mintCertificate(address,string,uint256,string,string,string)",
      "arguments": [
        "0x1A2cDc9Ea7dFc55aeaDb314bB8C3b09E938c989b",
        "Bob Martin",
        "2025003",
        "Master - Ingenierie Mobile et Objets Connectes",
        "Mention - Assez Bien",
        "https://ipfs.io/ipfs/hash_du_certificat_bob"
      ],
      "transaction": {
        "from": "0x1a2cdc9ea7dfc55aeadb314bb8c3b09e938c989b",
        "to": "0xc0121389925343d46124719e8e8f5683f4228fbf",
        "gas": "0x804f4",
        "value": "0x0",
        "input": "0x689f76860000000000000000000000001a2cdc9ea7dfc55aeadb314bb8c3b09e938c989b00000000000000000000000000000000000000000000000000000000000000c000000000000000000000000000000000000000000000000000000000001ee62b0000000000000000000000000000000000000000000000000000000000000100000000000000000000000000000000000000000000000000000000000000016000000000000000000000000000000000000000000000000000000000000001a0000000000000000000000000000000000000000000000000000000000000000a426f62204d617274696e00000000000000000000000000000000000000000000000000000000000000000000000000000000000000000000000000000000002e4d6173746572202d20496e67656e6965726965204d6f62696c65206574204f626a65747320436f6e6e656374657300000000000000000000000000000000000000000000000000000000000000000000000000000000000000000000000000144d656e74696f6e202d20417373657a204269656e000000000000000000000000000000000000000000000000000000000000000000000000000000000000002b68747470733a2f2f697066732e696f2f697066732f686173685f64755f636572746966696361745f626f62000000000000000000000000000000000000000000",
        "nonce": "0x18",
        "chainId": "0xa869"
      },
      "additionalContracts": [],
      "isFixedGasLimit": false
    },
    {
      "hash": "0xefe56c0c088770b82a71634460dfbc3de2e0ca25e45a08b0e3dd982d2a190ba4",
      "transactionType": "CALL",
      "contractName": "AcademicCertificateNFT",
      "contractAddress": "0xc0121389925343d46124719e8e8f5683f4228fbf",
      "function": "mintCertificate(address,string,uint256,string,string,string)",
      "arguments": [
        "0x1A2cDc9Ea7dFc55aeaDb314bB8C3b09E938c989b",
        "Claire Lefevre",
        "2025004",
        "Master - Intelligence Artificielle et Big Data",
        "Mention - Très Bien",
        "https://ipfs.io/ipfs/hash_du_certificat_claire"
      ],
      "transaction": {
        "from": "0x1a2cdc9ea7dfc55aeadb314bb8c3b09e938c989b",
        "to": "0xc0121389925343d46124719e8e8f5683f4228fbf",
        "gas": "0x87e33",
        "value": "0x0",
        "input": "0x689f76860000000000000000000000001a2cdc9ea7dfc55aeadb314bb8c3b09e938c989b00000000000000000000000000000000000000000000000000000000000000c000000000000000000000000000000000000000000000000000000000001ee62c0000000000000000000000000000000000000000000000000000000000000100000000000000000000000000000000000000000000000000000000000000016000000000000000000000000000000000000000000000000000000000000001a0000000000000000000000000000000000000000000000000000000000000000e436c61697265204c656665767265000000000000000000000000000000000000000000000000000000000000000000000000000000000000000000000000002e4d6173746572202d20496e74656c6c6967656e6365204172746966696369656c6c6520657420426967204461746100000000000000000000000000000000000000000000000000000000000000000000000000000000000000000000000000144d656e74696f6e202d205472c3a873204269656e000000000000000000000000000000000000000000000000000000000000000000000000000000000000002e68747470733a2f2f697066732e696f2f697066732f686173685f64755f636572746966696361745f636c61697265000000000000000000000000000000000000",
        "nonce": "0x19",
        "chainId": "0xa869"
      },
      "additionalContracts": [],
      "isFixedGasLimit": false
    },
    {
      "hash": "0x3dbc49d46a599802bdd4b709c3f3f9cd7ea685c526931723472b262af42775d2",
      "transactionType": "CALL",
      "contractName": "AcademicCertificateNFT",
      "contractAddress": "0xc0121389925343d46124719e8e8f5683f4228fbf",
      "function": "mintCertificate(address,string,uint256,string,string,string)",
      "arguments": [
        "0x1A2cDc9Ea7dFc55aeaDb314bB8C3b09E938c989b",
        "David Chen",
        "2025005",
        "Master - Ingenierie du Web",
        "Mention - Passable",
        "https://ipfs.io/ipfs/hash_du_certificat_david"
      ],
      "transaction": {
        "from": "0x1a2cdc9ea7dfc55aeadb314bb8c3b09e938c989b",
        "to": "0xc0121389925343d46124719e8e8f5683f4228fbf",
        "gas": "0x71211",
        "value": "0x0",
        "input": "0x689f76860000000000000000000000001a2cdc9ea7dfc55aeadb314bb8c3b09e938c989b00000000000000000000000000000000000000000000000000000000000000c000000000000000000000000000000000000000000000000000000000001ee62d000000000000000000000000000000000000000000000000000000000000010000000000000000000000000000000000000000000000000000000000000001400000000000000000000000000000000000000000000000000000000000000180000000000000000000000000000000000000000000000000000000000000000a4461766964204368656e00000000000000000000000000000000000000000000000000000000000000000000000000000000000000000000000000000000001a4d6173746572202d20496e67656e69657269652064752057656200000000000000000000000000000000000000000000000000000000000000000000000000124d656e74696f6e202d205061737361626c650000000000000000000000000000000000000000000000000000000000000000000000000000000000000000002d68747470733a2f2f697066732e696f2f697066732f686173685f64755f636572746966696361745f646176696400000000000000000000000000000000000000",
        "nonce": "0x1a",
        "chainId": "0xa869"
      },
      "additionalContracts": [],
      "isFixedGasLimit": false
    }
  ],
  "receipts": [
    {
      "status": "0x1",
      "cumulativeGasUsed": "0x1c214c",
      "logs": [
        {
          "address": "0xc0121389925343d46124719e8e8f5683f4228fbf",
          "topics": [
            "0x2f8788117e7eff1d82e926ec794901d17c78024a50270940304540a733656f0d",
            "0x0000000000000000000000000000000000000000000000000000000000000000",
            "0x0000000000000000000000001a2cdc9ea7dfc55aeadb314bb8c3b09e938c989b",
            "0x0000000000000000000000001a2cdc9ea7dfc55aeadb314bb8c3b09e938c989b"
          ],
          "data": "0x",
          "blockHash": "0x2016b94f89d40ef771a8d0474ee3cb7719fbf30faaa5774c8fbfc91607b1f94b",
          "blockNumber": "0x2437367",
          "transactionHash": "0x8e5f70e7ea5549836a5a7a2e2203125f86475aaa54b6fa977c093aa1ac000773",
          "transactionIndex": "0x0",
          "logIndex": "0x0",
          "removed": false
        },
        {
          "address": "0xc0121389925343d46124719e8e8f5683f4228fbf",
          "topics": [
            "0x2f8788117e7eff1d82e926ec794901d17c78024a50270940304540a733656f0d",
            "0x4b90e70a23ad1c016cdba1a015076c2de977e305fcad3881690cafbe99d36190",
            "0x0000000000000000000000001a2cdc9ea7dfc55aeadb314bb8c3b09e938c989b",
            "0x0000000000000000000000001a2cdc9ea7dfc55aeadb314bb8c3b09e938c989b"
          ],
          "data": "0x",
          "blockHash": "0x2016b94f89d40ef771a8d0474ee3cb7719fbf30faaa5774c8fbfc91607b1f94b",
          "blockNumber": "0x2437367",
          "transactionHash": "0x8e5f70e7ea5549836a5a7a2e2203125f86475aaa54b6fa977c093aa1ac000773",
          "transactionIndex": "0x0",
          "logIndex": "0x1",
          "removed": false
        }
      ],
      "logsBloom": "0x00000004000001000000000000000000000000000000000000000000000000000000000000000000000000000000000000200020000000000000000000000000000000000000000000000000000000000000000000000000100000000000000000010000020000000000000000000800000000000000001000000000000000000000000000000000000000000000000000000000004000000000000000000000000000000000000000000000000000000000000000000000001000000000000000000000000000000000000000000000000000000000000100000000000020000000000000000000000002000000000000000000000800000000000000000000",
      "type": "0x2",
      "transactionHash": "0x8e5f70e7ea5549836a5a7a2e2203125f86475aaa54b6fa977c093aa1ac000773",
      "transactionIndex": "0x0",
      "blockHash": "0x2016b94f89d40ef771a8d0474ee3cb7719fbf30faaa5774c8fbfc91607b1f94b",
      "blockNumber": "0x2437367",
      "gasUsed": "0x1c214c",
      "effectiveGasPrice": "0x170f3e780",
      "from": "0x1a2cdc9ea7dfc55aeadb314bb8c3b09e938c989b",
      "to": null,
      "contractAddress": "0xc0121389925343d46124719e8e8f5683f4228fbf"
    },
    {
      "status": "0x1",
      "cumulativeGasUsed": "0x222722",
      "logs": [
        {
          "address": "0xc0121389925343d46124719e8e8f5683f4228fbf",
          "topics": [
            "0xddf252ad1be2c89b69c2b068fc378daa952ba7f163c4a11628f55a4df523b3ef",
            "0x0000000000000000000000000000000000000000000000000000000000000000",
            "0x0000000000000000000000001a2cdc9ea7dfc55aeadb314bb8c3b09e938c989b",
            "0x0000000000000000000000000000000000000000000000000000000000000000"
          ],
          "data": "0x",
          "blockHash": "0x2016b94f89d40ef771a8d0474ee3cb7719fbf30faaa5774c8fbfc91607b1f94b",
          "blockNumber": "0x2437367",
          "transactionHash": "0x9fd7c610717892d27ea86036c1b739edb177d78aa0ba793a794b65bc677eeb74",
          "transactionIndex": "0x1",
          "logIndex": "0x2",
          "removed": false
        },
        {
          "address": "0xc0121389925343d46124719e8e8f5683f4228fbf",
          "topics": [
            "0xf8e1a15aba9398e019f0b49df1a4fde98ee17ae345cb5f6b5e2c27f5033e8ce7"
          ],
          "data": "0x0000000000000000000000000000000000000000000000000000000000000000",
          "blockHash": "0x2016b94f89d40ef771a8d0474ee3cb7719fbf30faaa5774c8fbfc91607b1f94b",
          "blockNumber": "0x2437367",
          "transactionHash": "0x9fd7c610717892d27ea86036c1b739edb177d78aa0ba793a794b65bc677eeb74",
          "transactionIndex": "0x1",
          "logIndex": "0x3",
          "removed": false
        },
        {
          "address": "0xc0121389925343d46124719e8e8f5683f4228fbf",
          "topics": [
            "0x33d618f03fce777f020754896bd309ec864294c350ab96e273f8706f29df86e5",
            "0x0000000000000000000000000000000000000000000000000000000000000000",
            "0x00000000000000000000000000000000000000000000000000000000001ee629"
          ],
          "data": "0x00000000000000000000000000000000000000000000000000000000000000400000000000000000000000000000000000000000000000000000000067a9cb5300000000000000000000000000000000000000000000000000000000000000244d6173746572202d20496e67656e6965726965206465206c6120426c6f636b636861696e00000000000000000000000000000000000000000000000000000000",
          "blockHash": "0x2016b94f89d40ef771a8d0474ee3cb7719fbf30faaa5774c8fbfc91607b1f94b",
          "blockNumber": "0x2437367",
          "transactionHash": "0x9fd7c610717892d27ea86036c1b739edb177d78aa0ba793a794b65bc677eeb74",
          "transactionIndex": "0x1",
          "logIndex": "0x4",
          "removed": false
        }
      ],
      "logsBloom": "0x00000000000001000000000000000000000000000000000000000000000000000000000000000000000000000000000000200080000000000000000000000000000000000000000000000008000000000000004000000000140000000000000000010000020000000000000000000800000000000000001000000010000000000000000020000000000000000000000000000000000000000000000000000000000000000000000000000000000000002000000000000000000000000000008000000102000000000000000000000000000000000000000000000000000020000000000000000000200002000000000000000000000000000000000000040000",
      "type": "0x2",
      "transactionHash": "0x9fd7c610717892d27ea86036c1b739edb177d78aa0ba793a794b65bc677eeb74",
      "transactionIndex": "0x1",
      "blockHash": "0x2016b94f89d40ef771a8d0474ee3cb7719fbf30faaa5774c8fbfc91607b1f94b",
      "blockNumber": "0x2437367",
      "gasUsed": "0x605d6",
      "effectiveGasPrice": "0x170f3e780",
      "from": "0x1a2cdc9ea7dfc55aeadb314bb8c3b09e938c989b",
      "to": "0xc0121389925343d46124719e8e8f5683f4228fbf",
      "contractAddress": null
    },
    {
      "status": "0x1",
      "cumulativeGasUsed": "0x27f4d4",
      "logs": [
        {
          "address": "0xc0121389925343d46124719e8e8f5683f4228fbf",
          "topics": [
            "0xddf252ad1be2c89b69c2b068fc378daa952ba7f163c4a11628f55a4df523b3ef",
            "0x0000000000000000000000000000000000000000000000000000000000000000",
            "0x0000000000000000000000001a2cdc9ea7dfc55aeadb314bb8c3b09e938c989b",
            "0x0000000000000000000000000000000000000000000000000000000000000001"
          ],
          "data": "0x",
          "blockHash": "0x2016b94f89d40ef771a8d0474ee3cb7719fbf30faaa5774c8fbfc91607b1f94b",
          "blockNumber": "0x2437367",
          "transactionHash": "0x82a1251db74d56f4dd0cb62b7cf65ca733c708a9578065565e0506b6157ceb11",
          "transactionIndex": "0x2",
          "logIndex": "0x5",
          "removed": false
        },
        {
          "address": "0xc0121389925343d46124719e8e8f5683f4228fbf",
          "topics": [
            "0xf8e1a15aba9398e019f0b49df1a4fde98ee17ae345cb5f6b5e2c27f5033e8ce7"
          ],
          "data": "0x0000000000000000000000000000000000000000000000000000000000000001",
          "blockHash": "0x2016b94f89d40ef771a8d0474ee3cb7719fbf30faaa5774c8fbfc91607b1f94b",
          "blockNumber": "0x2437367",
          "transactionHash": "0x82a1251db74d56f4dd0cb62b7cf65ca733c708a9578065565e0506b6157ceb11",
          "transactionIndex": "0x2",
          "logIndex": "0x6",
          "removed": false
        },
        {
          "address": "0xc0121389925343d46124719e8e8f5683f4228fbf",
          "topics": [
            "0x33d618f03fce777f020754896bd309ec864294c350ab96e273f8706f29df86e5",
            "0x0000000000000000000000000000000000000000000000000000000000000001",
            "0x00000000000000000000000000000000000000000000000000000000001ee62a"
          ],
          "data": "0x00000000000000000000000000000000000000000000000000000000000000400000000000000000000000000000000000000000000000000000000067a9cb5300000000000000000000000000000000000000000000000000000000000000234d6173746572202d2041726368697465637475726520646573204c6f67696369656c730000000000000000000000000000000000000000000000000000000000",
          "blockHash": "0x2016b94f89d40ef771a8d0474ee3cb7719fbf30faaa5774c8fbfc91607b1f94b",
          "blockNumber": "0x2437367",
          "transactionHash": "0x82a1251db74d56f4dd0cb62b7cf65ca733c708a9578065565e0506b6157ceb11",
          "transactionIndex": "0x2",
          "logIndex": "0x7",
          "removed": false
        }
      ],
      "logsBloom": "0x00000000000001000000000000000000000000000000000000000000000000000000000000000000000000000000000000200080000000000000000400040000000000000000000000000008001000000000000000040000100000000000000000010000020000000000000000000800000004000000001000000010000000000000000020000000000000000000000000000000000000000000000000000000000000000000000000000000000000002000000000000000000000000000008000000002000000000000000000000000000000000000000000000000000060000000000000000000200002000000000000000000000000000000000000040000",
      "type": "0x2",
      "transactionHash": "0x82a1251db74d56f4dd0cb62b7cf65ca733c708a9578065565e0506b6157ceb11",
      "transactionIndex": "0x2",
      "blockHash": "0x2016b94f89d40ef771a8d0474ee3cb7719fbf30faaa5774c8fbfc91607b1f94b",
      "blockNumber": "0x2437367",
      "gasUsed": "0x5cdb2",
      "effectiveGasPrice": "0x170f3e780",
      "from": "0x1a2cdc9ea7dfc55aeadb314bb8c3b09e938c989b",
      "to": "0xc0121389925343d46124719e8e8f5683f4228fbf",
      "contractAddress": null
    },
    {
      "status": "0x1",
      "cumulativeGasUsed": "0x2dc322",
      "logs": [
        {
          "address": "0xc0121389925343d46124719e8e8f5683f4228fbf",
          "topics": [
            "0xddf252ad1be2c89b69c2b068fc378daa952ba7f163c4a11628f55a4df523b3ef",
            "0x0000000000000000000000000000000000000000000000000000000000000000",
            "0x0000000000000000000000001a2cdc9ea7dfc55aeadb314bb8c3b09e938c989b",
            "0x0000000000000000000000000000000000000000000000000000000000000002"
          ],
          "data": "0x",
          "blockHash": "0x2016b94f89d40ef771a8d0474ee3cb7719fbf30faaa5774c8fbfc91607b1f94b",
          "blockNumber": "0x2437367",
          "transactionHash": "0x0104bcb31c9348440f7d4c32fb613e4a5495b615174097a21fb190479426663e",
          "transactionIndex": "0x3",
          "logIndex": "0x8",
          "removed": false
        },
        {
          "address": "0xc0121389925343d46124719e8e8f5683f4228fbf",
          "topics": [
            "0xf8e1a15aba9398e019f0b49df1a4fde98ee17ae345cb5f6b5e2c27f5033e8ce7"
          ],
          "data": "0x0000000000000000000000000000000000000000000000000000000000000002",
          "blockHash": "0x2016b94f89d40ef771a8d0474ee3cb7719fbf30faaa5774c8fbfc91607b1f94b",
          "blockNumber": "0x2437367",
          "transactionHash": "0x0104bcb31c9348440f7d4c32fb613e4a5495b615174097a21fb190479426663e",
          "transactionIndex": "0x3",
          "logIndex": "0x9",
          "removed": false
        },
        {
          "address": "0xc0121389925343d46124719e8e8f5683f4228fbf",
          "topics": [
            "0x33d618f03fce777f020754896bd309ec864294c350ab96e273f8706f29df86e5",
            "0x0000000000000000000000000000000000000000000000000000000000000002",
            "0x00000000000000000000000000000000000000000000000000000000001ee62b"
          ],
          "data": "0x00000000000000000000000000000000000000000000000000000000000000400000000000000000000000000000000000000000000000000000000067a9cb53000000000000000000000000000000000000000000000000000000000000002e4d6173746572202d20496e67656e6965726965204d6f62696c65206574204f626a65747320436f6e6e6563746573000000000000000000000000000000000000",
          "blockHash": "0x2016b94f89d40ef771a8d0474ee3cb7719fbf30faaa5774c8fbfc91607b1f94b",
          "blockNumber": "0x2437367",
          "transactionHash": "0x0104bcb31c9348440f7d4c32fb613e4a5495b615174097a21fb190479426663e",
          "transactionIndex": "0x3",
          "logIndex": "0xa",
          "removed": false
        }
      ],
      "logsBloom": "0x04000000000001000000000000000000000000000000000000040000000000000000000000000000000000000000000000200080000000000000000000000000000000000000000000000008000000000000000000000000100000000000000000010000020000000000000000000800000000000000001000000010000000000000000020000004000000000000000000000000000000000000000000000000000000000000000000000100000000002000000000000000000000000000028000000002000000000000000000000000000000000000000000000000000020000000000000000000200002000000000000000000008000000000000000040000",
      "type": "0x2",
      "transactionHash": "0x0104bcb31c9348440f7d4c32fb613e4a5495b615174097a21fb190479426663e",
      "transactionIndex": "0x3",
      "blockHash": "0x2016b94f89d40ef771a8d0474ee3cb7719fbf30faaa5774c8fbfc91607b1f94b",
      "blockNumber": "0x2437367",
      "gasUsed": "0x5ce4e",
      "effectiveGasPrice": "0x170f3e780",
      "from": "0x1a2cdc9ea7dfc55aeadb314bb8c3b09e938c989b",
      "to": "0xc0121389925343d46124719e8e8f5683f4228fbf",
      "contractAddress": null
    },
    {
      "status": "0x1",
      "cumulativeGasUsed": "0x3391c4",
      "logs": [
        {
          "address": "0xc0121389925343d46124719e8e8f5683f4228fbf",
          "topics": [
            "0xddf252ad1be2c89b69c2b068fc378daa952ba7f163c4a11628f55a4df523b3ef",
            "0x0000000000000000000000000000000000000000000000000000000000000000",
            "0x0000000000000000000000001a2cdc9ea7dfc55aeadb314bb8c3b09e938c989b",
            "0x0000000000000000000000000000000000000000000000000000000000000003"
          ],
          "data": "0x",
          "blockHash": "0x2016b94f89d40ef771a8d0474ee3cb7719fbf30faaa5774c8fbfc91607b1f94b",
          "blockNumber": "0x2437367",
          "transactionHash": "0xefe56c0c088770b82a71634460dfbc3de2e0ca25e45a08b0e3dd982d2a190ba4",
          "transactionIndex": "0x4",
          "logIndex": "0xb",
          "removed": false
        },
        {
          "address": "0xc0121389925343d46124719e8e8f5683f4228fbf",
          "topics": [
            "0xf8e1a15aba9398e019f0b49df1a4fde98ee17ae345cb5f6b5e2c27f5033e8ce7"
          ],
          "data": "0x0000000000000000000000000000000000000000000000000000000000000003",
          "blockHash": "0x2016b94f89d40ef771a8d0474ee3cb7719fbf30faaa5774c8fbfc91607b1f94b",
          "blockNumber": "0x2437367",
          "transactionHash": "0xefe56c0c088770b82a71634460dfbc3de2e0ca25e45a08b0e3dd982d2a190ba4",
          "transactionIndex": "0x4",
          "logIndex": "0xc",
          "removed": false
        },
        {
          "address": "0xc0121389925343d46124719e8e8f5683f4228fbf",
          "topics": [
            "0x33d618f03fce777f020754896bd309ec864294c350ab96e273f8706f29df86e5",
            "0x0000000000000000000000000000000000000000000000000000000000000003",
            "0x00000000000000000000000000000000000000000000000000000000001ee62c"
          ],
          "data": "0x00000000000000000000000000000000000000000000000000000000000000400000000000000000000000000000000000000000000000000000000067a9cb53000000000000000000000000000000000000000000000000000000000000002e4d6173746572202d20496e74656c6c6967656e6365204172746966696369656c6c65206574204269672044617461000000000000000000000000000000000000",
          "blockHash": "0x2016b94f89d40ef771a8d0474ee3cb7719fbf30faaa5774c8fbfc91607b1f94b",
          "blockNumber": "0x2437367",
          "transactionHash": "0xefe56c0c088770b82a71634460dfbc3de2e0ca25e45a08b0e3dd982d2a190ba4",
          "transactionIndex": "0x4",
          "logIndex": "0xd",
          "removed": false
        }
      ],
      "logsBloom": "0x00000000000001000000000000000000000000000400000000000000000000000000000000000000000000000000000000200080020000000000000000000000000000000000000000000008000000000800000000000000100000000000000000010000020000000000000000000800000000000000001000000010000000000000000020000800000000000000000000000000000000000000000000000000000000000000000000000000000000002000000000800000000000000000408000000002000000000000000000000000000000000000000000000000000020000000000000000000200002000000000000000000000000000000000000040000",
      "type": "0x2",
      "transactionHash": "0xefe56c0c088770b82a71634460dfbc3de2e0ca25e45a08b0e3dd982d2a190ba4",
      "transactionIndex": "0x4",
      "blockHash": "0x2016b94f89d40ef771a8d0474ee3cb7719fbf30faaa5774c8fbfc91607b1f94b",
      "blockNumber": "0x2437367",
      "gasUsed": "0x5cea2",
      "effectiveGasPrice": "0x170f3e780",
      "from": "0x1a2cdc9ea7dfc55aeadb314bb8c3b09e938c989b",
      "to": "0xc0121389925343d46124719e8e8f5683f4228fbf",
      "contractAddress": null
    },
    {
      "status": "0x1",
      "cumulativeGasUsed": "0x38b039",
      "logs": [
        {
          "address": "0xc0121389925343d46124719e8e8f5683f4228fbf",
          "topics": [
            "0xddf252ad1be2c89b69c2b068fc378daa952ba7f163c4a11628f55a4df523b3ef",
            "0x0000000000000000000000000000000000000000000000000000000000000000",
            "0x0000000000000000000000001a2cdc9ea7dfc55aeadb314bb8c3b09e938c989b",
            "0x0000000000000000000000000000000000000000000000000000000000000004"
          ],
          "data": "0x",
          "blockHash": "0x2016b94f89d40ef771a8d0474ee3cb7719fbf30faaa5774c8fbfc91607b1f94b",
          "blockNumber": "0x2437367",
          "transactionHash": "0x3dbc49d46a599802bdd4b709c3f3f9cd7ea685c526931723472b262af42775d2",
          "transactionIndex": "0x5",
          "logIndex": "0xe",
          "removed": false
        },
        {
          "address": "0xc0121389925343d46124719e8e8f5683f4228fbf",
          "topics": [
            "0xf8e1a15aba9398e019f0b49df1a4fde98ee17ae345cb5f6b5e2c27f5033e8ce7"
          ],
          "data": "0x0000000000000000000000000000000000000000000000000000000000000004",
          "blockHash": "0x2016b94f89d40ef771a8d0474ee3cb7719fbf30faaa5774c8fbfc91607b1f94b",
          "blockNumber": "0x2437367",
          "transactionHash": "0x3dbc49d46a599802bdd4b709c3f3f9cd7ea685c526931723472b262af42775d2",
          "transactionIndex": "0x5",
          "logIndex": "0xf",
          "removed": false
        },
        {
          "address": "0xc0121389925343d46124719e8e8f5683f4228fbf",
          "topics": [
            "0x33d618f03fce777f020754896bd309ec864294c350ab96e273f8706f29df86e5",
            "0x0000000000000000000000000000000000000000000000000000000000000004",
            "0x00000000000000000000000000000000000000000000000000000000001ee62d"
          ],
          "data": "0x00000000000000000000000000000000000000000000000000000000000000400000000000000000000000000000000000000000000000000000000067a9cb53000000000000000000000000000000000000000000000000000000000000001a4d6173746572202d20496e67656e696572696520647520576562000000000000",
          "blockHash": "0x2016b94f89d40ef771a8d0474ee3cb7719fbf30faaa5774c8fbfc91607b1f94b",
          "blockNumber": "0x2437367",
          "transactionHash": "0x3dbc49d46a599802bdd4b709c3f3f9cd7ea685c526931723472b262af42775d2",
          "transactionIndex": "0x5",
          "logIndex": "0x10",
          "removed": false
        }
      ],
      "logsBloom": "0x0000000000000100000000000000000000000000000000000000000000000000000000000000000000000000000000000020008000000000000000000000800000000000000000000000000800000000000000000000000010000000000000000c010000020000000000000000000800000000000000001000000010000000000000000020000000000000000000000000000000000000000000000000000000000000000000000000000000000000002000000000000000002000000000008000000002000000000000000200000000000000008000000000000000000020000000000000000000200002000000000000000000000000000000000000040000",
      "type": "0x2",
      "transactionHash": "0x3dbc49d46a599802bdd4b709c3f3f9cd7ea685c526931723472b262af42775d2",
      "transactionIndex": "0x5",
      "blockHash": "0x2016b94f89d40ef771a8d0474ee3cb7719fbf30faaa5774c8fbfc91607b1f94b",
      "blockNumber": "0x2437367",
      "gasUsed": "0x51e75",
      "effectiveGasPrice": "0x170f3e780",
      "from": "0x1a2cdc9ea7dfc55aeadb314bb8c3b09e938c989b",
      "to": "0xc0121389925343d46124719e8e8f5683f4228fbf",
      "contractAddress": null
    }
  ],
  "libraries": [],
  "pending": [],
  "returns": {},
  "timestamp": 1739180886,
  "chain": 43113,
  "commit": "d555192"
}