{
  "transactions": [
    {
      "hash": "0xac81562d203909f26d61b5bf087616edb3022f0376e819d404b988f00086e949",
      "transactionType": "CREATE",
      "contractName": "AcademicCertificateNFT",
      "contractAddress": "0xbb55a96f7c27e0066fda2f58bd4426b0897720a6",
      "function": null,
      "arguments": null,
      "transaction": {
        "from": "0x1a2cdc9ea7dfc55aeadb314bb8c3b09e938c989b",
        "gas": "0x3ee668",
        "value": "0x0",
        "input": "0x608060405234801561000f575f80fd5b506040518060400160405280601481526020017f41636164656d6963204469706c6f6d61204e46540000000000000000000000008152506040518060400160405280600781526020017f4449504c4f4d4100000000000000000000000000000000000000000000000000815250815f908161008a9190610481565b50806001908161009a9190610481565b5050506100af5f801b336100e660201b60201c565b506100e07f4b90e70a23ad1c016cdba1a015076c2de977e305fcad3881690cafbe99d36190336100e660201b60201c565b50610550565b5f6100f783836101dc60201b60201c565b6101d257600160075f8581526020019081526020015f205f015f8473ffffffffffffffffffffffffffffffffffffffff1673ffffffffffffffffffffffffffffffffffffffff1681526020019081526020015f205f6101000a81548160ff02191690831515021790555061016f61024060201b60201c565b73ffffffffffffffffffffffffffffffffffffffff168273ffffffffffffffffffffffffffffffffffffffff16847f2f8788117e7eff1d82e926ec794901d17c78024a50270940304540a733656f0d60405160405180910390a4600190506101d6565b5f90505b92915050565b5f60075f8481526020019081526020015f205f015f8373ffffffffffffffffffffffffffffffffffffffff1673ffffffffffffffffffffffffffffffffffffffff1681526020019081526020015f205f9054906101000a900460ff16905092915050565b5f33905090565b5f81519050919050565b7f4e487b71000000000000000000000000000000000000000000000000000000005f52604160045260245ffd5b7f4e487b71000000000000000000000000000000000000000000000000000000005f52602260045260245ffd5b5f60028204905060018216806102c257607f821691505b6020821081036102d5576102d461027e565b5b50919050565b5f819050815f5260205f209050919050565b5f6020601f8301049050919050565b5f82821b905092915050565b5f600883026103377fffffffffffffffffffffffffffffffffffffffffffffffffffffffffffffffff826102fc565b61034186836102fc565b95508019841693508086168417925050509392505050565b5f819050919050565b5f819050919050565b5f61038561038061037b84610359565b610362565b610359565b9050919050565b5f819050919050565b61039e8361036b565b6103b26103aa8261038c565b848454610308565b825550505050565b5f90565b6103c66103ba565b6103d1818484610395565b505050565b5b818110156103f4576103e95f826103be565b6001810190506103d7565b5050565b601f8211156104395761040a816102db565b610413846102ed565b81016020851015610422578190505b61043661042e856102ed565b8301826103d6565b50505b505050565b5f82821c905092915050565b5f6104595f198460080261043e565b1980831691505092915050565b5f610471838361044a565b9150826002028217905092915050565b61048a82610247565b67ffffffffffffffff8111156104a3576104a2610251565b5b6104ad82546102ab565b6104b88282856103f8565b5f60209050601f8311600181146104e9575f84156104d7578287015190505b6104e18582610466565b865550610548565b601f1984166104f7866102db565b5f5b8281101561051e578489015182556001820191506020850194506020810190506104f9565b8683101561053b5784890151610537601f89168261044a565b8355505b6001600288020188555050505b505050505050565b61366a8061055d5f395ff3fe608060405234801561000f575f80fd5b506004361061018c575f3560e01c806370a08231116100dc578063a901fe5e11610095578063c87b56dd1161006f578063c87b56dd146104a2578063d547741f146104d2578063e5a357f5146104ee578063e985e9c51461051e5761018c565b8063a901fe5e1461043a578063b1466d1d1461046a578063b88d4fde146104865761018c565b806370a08231146103645780637843bb791461039457806391d14854146103b257806395d89b41146103e2578063a217fddf14610400578063a22cb4651461041e5761018c565b80632a31b5a31161014957806342842e0e1161012357806342842e0e146102cc5780636352211e146102e8578063689f7686146103185780636c93ea46146103485761018c565b80632a31b5a3146102765780632f2ff15d1461029457806336568abe146102b05761018c565b806301ffc9a71461019057806306fdde03146101c0578063081812fc146101de578063095ea7b31461020e57806323b872dd1461022a578063248a9ca314610246575b5f80fd5b6101aa60048036038101906101a5919061256d565b61054e565b6040516101b791906125b2565b60405180910390f35b6101c861055f565b6040516101d5919061263b565b60405180910390f35b6101f860048036038101906101f3919061268e565b6105ee565b60405161020591906126f8565b60405180910390f35b6102286004803603810190610223919061273b565b610609565b005b610244600480360381019061023f9190612779565b61061f565b005b610260600480360381019061025b91906127fc565b61071e565b60405161026d9190612836565b60405180910390f35b61027e61073b565b60405161028b9190612836565b60405180910390f35b6102ae60048036038101906102a9919061284f565b61075f565b005b6102ca60048036038101906102c5919061284f565b610781565b005b6102e660048036038101906102e19190612779565b6107fc565b005b61030260048036038101906102fd919061268e565b61081b565b60405161030f91906126f8565b60405180910390f35b610332600480360381019061032d91906129b9565b61082c565b60405161033f9190612ac1565b60405180910390f35b610362600480360381019061035d9190612ada565b6109e6565b005b61037e60048036038101906103799190612b34565b610b2f565b60405161038b9190612ac1565b60405180910390f35b61039c610be5565b6040516103a99190612ac1565b60405180910390f35b6103cc60048036038101906103c7919061284f565b610bee565b6040516103d991906125b2565b60405180910390f35b6103ea610c52565b6040516103f7919061263b565b60405180910390f35b610408610ce2565b6040516104159190612836565b60405180910390f35b61043860048036038101906104339190612b89565b610ce8565b005b610454600480360381019061044f919061268e565b610cfe565b6040516104619190612cd4565b60405180910390f35b610484600480360381019061047f9190612ada565b610f86565b005b6104a0600480360381019061049b9190612d92565b6110d2565b005b6104bc60048036038101906104b7919061268e565b6110f7565b6040516104c9919061263b565b60405180910390f35b6104ec60048036038101906104e7919061284f565b611202565b005b6105086004803603810190610503919061268e565b611224565b6040516105159190612eba565b60405180910390f35b61053860048036038101906105339190612eda565b61128b565b60405161054591906125b2565b60405180910390f35b5f61055882611319565b9050919050565b60605f805461056d90612f45565b80601f016020809104026020016040519081016040528092919081815260200182805461059990612f45565b80156105e45780601f106105bb576101008083540402835291602001916105e4565b820191905f5260205f20905b8154815290600101906020018083116105c757829003601f168201915b5050505050905090565b5f6105f882611392565b5061060282611418565b9050919050565b61061b8282610616611451565b611458565b5050565b5f73ffffffffffffffffffffffffffffffffffffffff168273ffffffffffffffffffffffffffffffffffffffff160361068f575f6040517f64a0ae9200000000000000000000000000000000000000000000000000000000815260040161068691906126f8565b60405180910390fd5b5f6106a2838361069d611451565b61146a565b90508373ffffffffffffffffffffffffffffffffffffffff168173ffffffffffffffffffffffffffffffffffffffff1614610718578382826040517f64283d7b00000000000000000000000000000000000000000000000000000000815260040161070f93929190612f75565b60405180910390fd5b50505050565b5f60075f8381526020019081526020015f20600101549050919050565b7f4b90e70a23ad1c016cdba1a015076c2de977e305fcad3881690cafbe99d3619081565b6107688261071e565b61077181611675565b61077b8383611689565b50505050565b610789611451565b73ffffffffffffffffffffffffffffffffffffffff168173ffffffffffffffffffffffffffffffffffffffff16146107ed576040517f6697b23200000000000000000000000000000000000000000000000000000000815260040160405180910390fd5b6107f78282611773565b505050565b61081683838360405180602001604052805f8152506110d2565b505050565b5f61082582611392565b9050919050565b5f7f4b90e70a23ad1c016cdba1a015076c2de977e305fcad3881690cafbe99d3619061085781611675565b5f60085f81548092919061086a90612fd7565b9190505590506040518060e001604052808981526020018881526020018781526020016107b26301e13380426108a0919061304b565b6108aa919061307b565b81526020018681526020016001151581526020014281525060095f8381526020019081526020015f205f820151815f0190816108e6919061324b565b50602082015181600101556040820151816002019081610906919061324b565b50606082015181600301556080820151816004019081610926919061324b565b5060a0820151816005015f6101000a81548160ff02191690831515021790555060c08201518160060155905050600a5f8881526020019081526020015f2081908060018154018082558091505060019003905f5260205f20015f9091909190915055610992898261185d565b61099c8185611950565b86817f33d618f03fce777f020754896bd309ec864294c350ab96e273f8706f29df86e588426040516109cf92919061331a565b60405180910390a380925050509695505050505050565b7f4b90e70a23ad1c016cdba1a015076c2de977e305fcad3881690cafbe99d36190610a1081611675565b5f73ffffffffffffffffffffffffffffffffffffffff16610a30846119aa565b73ffffffffffffffffffffffffffffffffffffffff1603610a86576040517f08c379a0000000000000000000000000000000000000000000000000000000008152600401610a7d90613392565b60405180910390fd5b60095f8481526020019081526020015f206005015f9054906101000a900460ff16610ae6576040517f08c379a0000000000000000000000000000000000000000000000000000000008152600401610add906133fa565b60405180910390fd5b610af08383611950565b827fcfbfcc21605b20d720137ae3e0152b9601040bb9a22eec394c3897990da975398342604051610b2292919061331a565b60405180910390a2505050565b5f8073ffffffffffffffffffffffffffffffffffffffff168273ffffffffffffffffffffffffffffffffffffffff1603610ba0575f6040517f89c62b64000000000000000000000000000000000000000000000000000000008152600401610b9791906126f8565b60405180910390fd5b60035f8373ffffffffffffffffffffffffffffffffffffffff1673ffffffffffffffffffffffffffffffffffffffff1681526020019081526020015f20549050919050565b5f600854905090565b5f60075f8481526020019081526020015f205f015f8373ffffffffffffffffffffffffffffffffffffffff1673ffffffffffffffffffffffffffffffffffffffff1681526020019081526020015f205f9054906101000a900460ff16905092915050565b606060018054610c6190612f45565b80601f0160208091040260200160405190810160405280929190818152602001828054610c8d90612f45565b8015610cd85780601f10610caf57610100808354040283529160200191610cd8565b820191905f5260205f20905b815481529060010190602001808311610cbb57829003601f168201915b5050505050905090565b5f801b81565b610cfa610cf3611451565b83836119e3565b5050565b610d066124cc565b5f73ffffffffffffffffffffffffffffffffffffffff16610d26836119aa565b73ffffffffffffffffffffffffffffffffffffffff1603610d7c576040517f08c379a0000000000000000000000000000000000000000000000000000000008152600401610d7390613392565b60405180910390fd5b60095f8381526020019081526020015f206040518060e00160405290815f82018054610da790612f45565b80601f0160208091040260200160405190810160405280929190818152602001828054610dd390612f45565b8015610e1e5780601f10610df557610100808354040283529160200191610e1e565b820191905f5260205f20905b815481529060010190602001808311610e0157829003601f168201915b5050505050815260200160018201548152602001600282018054610e4190612f45565b80601f0160208091040260200160405190810160405280929190818152602001828054610e6d90612f45565b8015610eb85780601f10610e8f57610100808354040283529160200191610eb8565b820191905f5260205f20905b815481529060010190602001808311610e9b57829003601f168201915b5050505050815260200160038201548152602001600482018054610edb90612f45565b80601f0160208091040260200160405190810160405280929190818152602001828054610f0790612f45565b8015610f525780601f10610f2957610100808354040283529160200191610f52565b820191905f5260205f20905b815481529060010190602001808311610f3557829003601f168201915b50505050508152602001600582015f9054906101000a900460ff161515151581526020016006820154815250509050919050565b5f801b610f9281611675565b5f73ffffffffffffffffffffffffffffffffffffffff16610fb2846119aa565b73ffffffffffffffffffffffffffffffffffffffff1603611008576040517f08c379a0000000000000000000000000000000000000000000000000000000008152600401610fff90613392565b60405180910390fd5b60095f8481526020019081526020015f206005015f9054906101000a900460ff16611068576040517f08c379a000000000000000000000000000000000000000000000000000000000815260040161105f90613462565b60405180910390fd5b5f60095f8581526020019081526020015f206005015f6101000a81548160ff021916908315150217905550827feabe56bb1d954cc547a259b3ee0e6093882c585dc777b92351571cf5f810b94842846040516110c5929190613480565b60405180910390a2505050565b6110dd84848461061f565b6110f16110e8611451565b85858585611b4c565b50505050565b606061110282611392565b505f60065f8481526020019081526020015f20805461112090612f45565b80601f016020809104026020016040519081016040528092919081815260200182805461114c90612f45565b80156111975780601f1061116e57610100808354040283529160200191611197565b820191905f5260205f20905b81548152906001019060200180831161117a57829003601f168201915b505050505090505f6111a7611cf8565b90505f8151036111bb5781925050506111fd565b5f825111156111ef5780826040516020016111d79291906134e8565b604051602081830303815290604052925050506111fd565b6111f884611d0e565b925050505b919050565b61120b8261071e565b61121481611675565b61121e8383611773565b50505050565b6060600a5f8381526020019081526020015f2080548060200260200160405190810160405280929190818152602001828054801561127f57602002820191905f5260205f20905b81548152602001906001019080831161126b575b50505050509050919050565b5f60055f8473ffffffffffffffffffffffffffffffffffffffff1673ffffffffffffffffffffffffffffffffffffffff1681526020019081526020015f205f8373ffffffffffffffffffffffffffffffffffffffff1673ffffffffffffffffffffffffffffffffffffffff1681526020019081526020015f205f9054906101000a900460ff16905092915050565b5f7f7965db0b000000000000000000000000000000000000000000000000000000007bffffffffffffffffffffffffffffffffffffffffffffffffffffffff1916827bffffffffffffffffffffffffffffffffffffffffffffffffffffffff1916148061138b575061138a82611d74565b5b9050919050565b5f8061139d836119aa565b90505f73ffffffffffffffffffffffffffffffffffffffff168173ffffffffffffffffffffffffffffffffffffffff160361140f57826040517f7e2732890000000000000000000000000000000000000000000000000000000081526004016114069190612ac1565b60405180910390fd5b80915050919050565b5f60045f8381526020019081526020015f205f9054906101000a900473ffffffffffffffffffffffffffffffffffffffff169050919050565b5f33905090565b6114658383836001611dd4565b505050565b5f80611475846119aa565b90505f73ffffffffffffffffffffffffffffffffffffffff168373ffffffffffffffffffffffffffffffffffffffff16146114b6576114b5818486611f93565b5b5f73ffffffffffffffffffffffffffffffffffffffff168173ffffffffffffffffffffffffffffffffffffffff1614611541576114f55f855f80611dd4565b600160035f8373ffffffffffffffffffffffffffffffffffffffff1673ffffffffffffffffffffffffffffffffffffffff1681526020019081526020015f205f82825403925050819055505b5f73ffffffffffffffffffffffffffffffffffffffff168573ffffffffffffffffffffffffffffffffffffffff16146115c057600160035f8773ffffffffffffffffffffffffffffffffffffffff1673ffffffffffffffffffffffffffffffffffffffff1681526020019081526020015f205f82825401925050819055505b8460025f8681526020019081526020015f205f6101000a81548173ffffffffffffffffffffffffffffffffffffffff021916908373ffffffffffffffffffffffffffffffffffffffff160217905550838573ffffffffffffffffffffffffffffffffffffffff168273ffffffffffffffffffffffffffffffffffffffff167fddf252ad1be2c89b69c2b068fc378daa952ba7f163c4a11628f55a4df523b3ef60405160405180910390a4809150509392505050565b61168681611681611451565b612056565b50565b5f6116948383610bee565b61176957600160075f8581526020019081526020015f205f015f8473ffffffffffffffffffffffffffffffffffffffff1673ffffffffffffffffffffffffffffffffffffffff1681526020019081526020015f205f6101000a81548160ff021916908315150217905550611706611451565b73ffffffffffffffffffffffffffffffffffffffff168273ffffffffffffffffffffffffffffffffffffffff16847f2f8788117e7eff1d82e926ec794901d17c78024a50270940304540a733656f0d60405160405180910390a46001905061176d565b5f90505b92915050565b5f61177e8383610bee565b15611853575f60075f8581526020019081526020015f205f015f8473ffffffffffffffffffffffffffffffffffffffff1673ffffffffffffffffffffffffffffffffffffffff1681526020019081526020015f205f6101000a81548160ff0219169083151502179055506117f0611451565b73ffffffffffffffffffffffffffffffffffffffff168273ffffffffffffffffffffffffffffffffffffffff16847ff6391f5c32d9c69d2a47ea670b442974b53935d1edc7fd64eb21e047a839171b60405160405180910390a460019050611857565b5f90505b92915050565b5f73ffffffffffffffffffffffffffffffffffffffff168273ffffffffffffffffffffffffffffffffffffffff16036118cd575f6040517f64a0ae920000000000000000000000000000000000000000000000000000000081526004016118c491906126f8565b60405180910390fd5b5f6118d983835f61146a565b90505f73ffffffffffffffffffffffffffffffffffffffff168173ffffffffffffffffffffffffffffffffffffffff161461194b575f6040517f73c6ac6e00000000000000000000000000000000000000000000000000000000815260040161194291906126f8565b60405180910390fd5b505050565b8060065f8481526020019081526020015f20908161196e919061324b565b507ff8e1a15aba9398e019f0b49df1a4fde98ee17ae345cb5f6b5e2c27f5033e8ce78260405161199e9190612ac1565b60405180910390a15050565b5f60025f8381526020019081526020015f205f9054906101000a900473ffffffffffffffffffffffffffffffffffffffff169050919050565b5f73ffffffffffffffffffffffffffffffffffffffff168273ffffffffffffffffffffffffffffffffffffffff1603611a5357816040517f5b08ba18000000000000000000000000000000000000000000000000000000008152600401611a4a91906126f8565b60405180910390fd5b8060055f8573ffffffffffffffffffffffffffffffffffffffff1673ffffffffffffffffffffffffffffffffffffffff1681526020019081526020015f205f8473ffffffffffffffffffffffffffffffffffffffff1673ffffffffffffffffffffffffffffffffffffffff1681526020019081526020015f205f6101000a81548160ff0219169083151502179055508173ffffffffffffffffffffffffffffffffffffffff168373ffffffffffffffffffffffffffffffffffffffff167f17307eab39ab6107e8899845ad3d59bd9653f200f220920489ca2b5937696c3183604051611b3f91906125b2565b60405180910390a3505050565b5f8373ffffffffffffffffffffffffffffffffffffffff163b1115611cf1578273ffffffffffffffffffffffffffffffffffffffff1663150b7a02868685856040518563ffffffff1660e01b8152600401611baa949392919061355d565b6020604051808303815f875af1925050508015611be557506040513d601f19601f82011682018060405250810190611be291906135bb565b60015b611c66573d805f8114611c13576040519150601f19603f3d011682016040523d82523d5f602084013e611c18565b606091505b505f815103611c5e57836040517f64a0ae92000000000000000000000000000000000000000000000000000000008152600401611c5591906126f8565b60405180910390fd5b805181602001fd5b63150b7a0260e01b7bffffffffffffffffffffffffffffffffffffffffffffffffffffffff1916817bffffffffffffffffffffffffffffffffffffffffffffffffffffffff191614611cef57836040517f64a0ae92000000000000000000000000000000000000000000000000000000008152600401611ce691906126f8565b60405180910390fd5b505b5050505050565b606060405180602001604052805f815250905090565b6060611d1982611392565b505f611d23611cf8565b90505f815111611d415760405180602001604052805f815250611d6c565b80611d4b846120a7565b604051602001611d5c9291906134e8565b6040516020818303038152906040525b915050919050565b5f634906490660e01b7bffffffffffffffffffffffffffffffffffffffffffffffffffffffff1916827bffffffffffffffffffffffffffffffffffffffffffffffffffffffff19161480611dcd5750611dcc82612171565b5b9050919050565b8080611e0c57505f73ffffffffffffffffffffffffffffffffffffffff168273ffffffffffffffffffffffffffffffffffffffff1614155b15611f3e575f611e1b84611392565b90505f73ffffffffffffffffffffffffffffffffffffffff168373ffffffffffffffffffffffffffffffffffffffff1614158015611e8557508273ffffffffffffffffffffffffffffffffffffffff168173ffffffffffffffffffffffffffffffffffffffff1614155b8015611e985750611e96818461128b565b155b15611eda57826040517fa9fbf51f000000000000000000000000000000000000000000000000000000008152600401611ed191906126f8565b60405180910390fd5b8115611f3c57838573ffffffffffffffffffffffffffffffffffffffff168273ffffffffffffffffffffffffffffffffffffffff167f8c5be1e5ebec7d5bd14f71427d1e84f3dd0314c0f7b2291e5b200ac8c7c3b92560405160405180910390a45b505b8360045f8581526020019081526020015f205f6101000a81548173ffffffffffffffffffffffffffffffffffffffff021916908373ffffffffffffffffffffffffffffffffffffffff16021790555050505050565b611f9e838383612252565b612051575f73ffffffffffffffffffffffffffffffffffffffff168373ffffffffffffffffffffffffffffffffffffffff160361201257806040517f7e2732890000000000000000000000000000000000000000000000000000000081526004016120099190612ac1565b60405180910390fd5b81816040517f177e802f0000000000000000000000000000000000000000000000000000000081526004016120489291906135e6565b60405180910390fd5b505050565b6120608282610bee565b6120a35780826040517fe2517d3f00000000000000000000000000000000000000000000000000000000815260040161209a92919061360d565b60405180910390fd5b5050565b60605f60016120b584612312565b0190505f8167ffffffffffffffff8111156120d3576120d2612895565b5b6040519080825280601f01601f1916602001820160405280156121055781602001600182028036833780820191505090505b5090505f82602001820190505b600115612166578080600190039150507f3031323334353637383961626364656600000000000000000000000000000000600a86061a8153600a858161215b5761215a61301e565b5b0494505f8503612112575b819350505050919050565b5f7f80ac58cd000000000000000000000000000000000000000000000000000000007bffffffffffffffffffffffffffffffffffffffffffffffffffffffff1916827bffffffffffffffffffffffffffffffffffffffffffffffffffffffff1916148061223b57507f5b5e139f000000000000000000000000000000000000000000000000000000007bffffffffffffffffffffffffffffffffffffffffffffffffffffffff1916827bffffffffffffffffffffffffffffffffffffffffffffffffffffffff1916145b8061224b575061224a82612463565b5b9050919050565b5f8073ffffffffffffffffffffffffffffffffffffffff168373ffffffffffffffffffffffffffffffffffffffff161415801561230957508273ffffffffffffffffffffffffffffffffffffffff168473ffffffffffffffffffffffffffffffffffffffff1614806122ca57506122c9848461128b565b5b8061230857508273ffffffffffffffffffffffffffffffffffffffff166122f083611418565b73ffffffffffffffffffffffffffffffffffffffff16145b5b90509392505050565b5f805f90507a184f03e93ff9f4daa797ed6e38ed64bf6a1f010000000000000000831061236e577a184f03e93ff9f4daa797ed6e38ed64bf6a1f01000000000000000083816123645761236361301e565b5b0492506040810190505b6d04ee2d6d415b85acef810000000083106123ab576d04ee2d6d415b85acef810000000083816123a1576123a061301e565b5b0492506020810190505b662386f26fc1000083106123da57662386f26fc1000083816123d0576123cf61301e565b5b0492506010810190505b6305f5e1008310612403576305f5e10083816123f9576123f861301e565b5b0492506008810190505b612710831061242857612710838161241e5761241d61301e565b5b0492506004810190505b6064831061244b57606483816124415761244061301e565b5b0492506002810190505b600a831061245a576001810190505b80915050919050565b5f7f01ffc9a7000000000000000000000000000000000000000000000000000000007bffffffffffffffffffffffffffffffffffffffffffffffffffffffff1916827bffffffffffffffffffffffffffffffffffffffffffffffffffffffff1916149050919050565b6040518060e00160405280606081526020015f8152602001606081526020015f8152602001606081526020015f151581526020015f81525090565b5f604051905090565b5f80fd5b5f80fd5b5f7fffffffff0000000000000000000000000000000000000000000000000000000082169050919050565b61254c81612518565b8114612556575f80fd5b50565b5f8135905061256781612543565b92915050565b5f6020828403121561258257612581612510565b5b5f61258f84828501612559565b91505092915050565b5f8115159050919050565b6125ac81612598565b82525050565b5f6020820190506125c55f8301846125a3565b92915050565b5f81519050919050565b5f82825260208201905092915050565b8281835e5f83830152505050565b5f601f19601f8301169050919050565b5f61260d826125cb565b61261781856125d5565b93506126278185602086016125e5565b612630816125f3565b840191505092915050565b5f6020820190508181035f8301526126538184612603565b905092915050565b5f819050919050565b61266d8161265b565b8114612677575f80fd5b50565b5f8135905061268881612664565b92915050565b5f602082840312156126a3576126a2612510565b5b5f6126b08482850161267a565b91505092915050565b5f73ffffffffffffffffffffffffffffffffffffffff82169050919050565b5f6126e2826126b9565b9050919050565b6126f2816126d8565b82525050565b5f60208201905061270b5f8301846126e9565b92915050565b61271a816126d8565b8114612724575f80fd5b50565b5f8135905061273581612711565b92915050565b5f806040838503121561275157612750612510565b5b5f61275e85828601612727565b925050602061276f8582860161267a565b9150509250929050565b5f805f606084860312156127905761278f612510565b5b5f61279d86828701612727565b93505060206127ae86828701612727565b92505060406127bf8682870161267a565b9150509250925092565b5f819050919050565b6127db816127c9565b81146127e5575f80fd5b50565b5f813590506127f6816127d2565b92915050565b5f6020828403121561281157612810612510565b5b5f61281e848285016127e8565b91505092915050565b612830816127c9565b82525050565b5f6020820190506128495f830184612827565b92915050565b5f806040838503121561286557612864612510565b5b5f612872858286016127e8565b925050602061288385828601612727565b9150509250929050565b5f80fd5b5f80fd5b7f4e487b71000000000000000000000000000000000000000000000000000000005f52604160045260245ffd5b6128cb826125f3565b810181811067ffffffffffffffff821117156128ea576128e9612895565b5b80604052505050565b5f6128fc612507565b905061290882826128c2565b919050565b5f67ffffffffffffffff82111561292757612926612895565b5b612930826125f3565b9050602081019050919050565b828183375f83830152505050565b5f61295d6129588461290d565b6128f3565b90508281526020810184848401111561297957612978612891565b5b61298484828561293d565b509392505050565b5f82601f8301126129a05761299f61288d565b5b81356129b084826020860161294b565b91505092915050565b5f805f805f8060c087890312156129d3576129d2612510565b5b5f6129e089828a01612727565b965050602087013567ffffffffffffffff811115612a0157612a00612514565b5b612a0d89828a0161298c565b9550506040612a1e89828a0161267a565b945050606087013567ffffffffffffffff811115612a3f57612a3e612514565b5b612a4b89828a0161298c565b935050608087013567ffffffffffffffff811115612a6c57612a6b612514565b5b612a7889828a0161298c565b92505060a087013567ffffffffffffffff811115612a9957612a98612514565b5b612aa589828a0161298c565b9150509295509295509295565b612abb8161265b565b82525050565b5f602082019050612ad45f830184612ab2565b92915050565b5f8060408385031215612af057612aef612510565b5b5f612afd8582860161267a565b925050602083013567ffffffffffffffff811115612b1e57612b1d612514565b5b612b2a8582860161298c565b9150509250929050565b5f60208284031215612b4957612b48612510565b5b5f612b5684828501612727565b91505092915050565b612b6881612598565b8114612b72575f80fd5b50565b5f81359050612b8381612b5f565b92915050565b5f8060408385031215612b9f57612b9e612510565b5b5f612bac85828601612727565b9250506020612bbd85828601612b75565b9150509250929050565b5f82825260208201905092915050565b5f612be1826125cb565b612beb8185612bc7565b9350612bfb8185602086016125e5565b612c04816125f3565b840191505092915050565b612c188161265b565b82525050565b612c2781612598565b82525050565b5f60e083015f8301518482035f860152612c478282612bd7565b9150506020830151612c5c6020860182612c0f565b5060408301518482036040860152612c748282612bd7565b9150506060830151612c896060860182612c0f565b5060808301518482036080860152612ca18282612bd7565b91505060a0830151612cb660a0860182612c1e565b5060c0830151612cc960c0860182612c0f565b508091505092915050565b5f6020820190508181035f830152612cec8184612c2d565b905092915050565b5f67ffffffffffffffff821115612d0e57612d0d612895565b5b612d17826125f3565b9050602081019050919050565b5f612d36612d3184612cf4565b6128f3565b905082815260208101848484011115612d5257612d51612891565b5b612d5d84828561293d565b509392505050565b5f82601f830112612d7957612d7861288d565b5b8135612d89848260208601612d24565b91505092915050565b5f805f8060808587031215612daa57612da9612510565b5b5f612db787828801612727565b9450506020612dc887828801612727565b9350506040612dd98782880161267a565b925050606085013567ffffffffffffffff811115612dfa57612df9612514565b5b612e0687828801612d65565b91505092959194509250565b5f81519050919050565b5f82825260208201905092915050565b5f819050602082019050919050565b5f612e468383612c0f565b60208301905092915050565b5f602082019050919050565b5f612e6882612e12565b612e728185612e1c565b9350612e7d83612e2c565b805f5b83811015612ead578151612e948882612e3b565b9750612e9f83612e52565b925050600181019050612e80565b5085935050505092915050565b5f6020820190508181035f830152612ed28184612e5e565b905092915050565b5f8060408385031215612ef057612eef612510565b5b5f612efd85828601612727565b9250506020612f0e85828601612727565b9150509250929050565b7f4e487b71000000000000000000000000000000000000000000000000000000005f52602260045260245ffd5b5f6002820490506001821680612f5c57607f821691505b602082108103612f6f57612f6e612f18565b5b50919050565b5f606082019050612f885f8301866126e9565b612f956020830185612ab2565b612fa260408301846126e9565b949350505050565b7f4e487b71000000000000000000000000000000000000000000000000000000005f52601160045260245ffd5b5f612fe18261265b565b91507fffffffffffffffffffffffffffffffffffffffffffffffffffffffffffffffff820361301357613012612faa565b5b600182019050919050565b7f4e487b71000000000000000000000000000000000000000000000000000000005f52601260045260245ffd5b5f6130558261265b565b91506130608361265b565b9250826130705761306f61301e565b5b828204905092915050565b5f6130858261265b565b91506130908361265b565b92508282019050808211156130a8576130a7612faa565b5b92915050565b5f819050815f5260205f209050919050565b5f6020601f8301049050919050565b5f82821b905092915050565b5f6008830261310a7fffffffffffffffffffffffffffffffffffffffffffffffffffffffffffffffff826130cf565b61311486836130cf565b95508019841693508086168417925050509392505050565b5f819050919050565b5f61314f61314a6131458461265b565b61312c565b61265b565b9050919050565b5f819050919050565b61316883613135565b61317c61317482613156565b8484546130db565b825550505050565b5f90565b613190613184565b61319b81848461315f565b505050565b5b818110156131be576131b35f82613188565b6001810190506131a1565b5050565b601f821115613203576131d4816130ae565b6131dd846130c0565b810160208510156131ec578190505b6132006131f8856130c0565b8301826131a0565b50505b505050565b5f82821c905092915050565b5f6132235f1984600802613208565b1980831691505092915050565b5f61323b8383613214565b9150826002028217905092915050565b613254826125cb565b67ffffffffffffffff81111561326d5761326c612895565b5b6132778254612f45565b6132828282856131c2565b5f60209050601f8311600181146132b3575f84156132a1578287015190505b6132ab8582613230565b865550613312565b601f1984166132c1866130ae565b5f5b828110156132e8578489015182556001820191506020850194506020810190506132c3565b868310156133055784890151613301601f891682613214565b8355505b6001600288020188555050505b505050505050565b5f6040820190508181035f8301526133328185612603565b90506133416020830184612ab2565b9392505050565b7f4365727469666963617420696e74726f757661626c65000000000000000000005f82015250565b5f61337c6016836125d5565b915061338782613348565b602082019050919050565b5f6020820190508181035f8301526133a981613370565b9050919050565b7f4365206365727469666963617420657374207265766f717565720000000000005f82015250565b5f6133e4601a836125d5565b91506133ef826133b0565b602082019050919050565b5f6020820190508181035f830152613411816133d8565b9050919050565b7f436572746966696361742064656a61207265766f7175657200000000000000005f82015250565b5f61344c6018836125d5565b915061345782613418565b602082019050919050565b5f6020820190508181035f83015261347981613440565b9050919050565b5f6040820190506134935f830185612ab2565b81810360208301526134a58184612603565b90509392505050565b5f81905092915050565b5f6134c2826125cb565b6134cc81856134ae565b93506134dc8185602086016125e5565b80840191505092915050565b5f6134f382856134b8565b91506134ff82846134b8565b91508190509392505050565b5f81519050919050565b5f82825260208201905092915050565b5f61352f8261350b565b6135398185613515565b93506135498185602086016125e5565b613552816125f3565b840191505092915050565b5f6080820190506135705f8301876126e9565b61357d60208301866126e9565b61358a6040830185612ab2565b818103606083015261359c8184613525565b905095945050505050565b5f815190506135b581612543565b92915050565b5f602082840312156135d0576135cf612510565b5b5f6135dd848285016135a7565b91505092915050565b5f6040820190506135f95f8301856126e9565b6136066020830184612ab2565b9392505050565b5f6040820190506136205f8301856126e9565b61362d6020830184612827565b939250505056fea2646970667358221220366528fd6b81cf3a3085d06634c22f679bc33255f0540781d688bdfd1326172d64736f6c63430008190033",
        "nonce": "0x0",
        "chainId": "0x4d2"
      },
      "additionalContracts": [],
      "isFixedGasLimit": false
    },
    {
      "hash": "0x6545ea51caf9fc5db0bf613258123147cc8ebc4db6596376e17dd9de9fe9c856",
      "transactionType": "CALL",
      "contractName": "AcademicCertificateNFT",
      "contractAddress": "0xbb55a96f7c27e0066fda2f58bd4426b0897720a6",
      "function": "mintCertificate(address,string,uint256,string,string,string)",
      "arguments": [
        "0x1A2cDc9Ea7dFc55aeaDb314bB8C3b09E938c989b",
        "Theo Samarasinghe",
        "2025001",
        "Master - Ingenierie de la Blockchain",
        "Mention - Très Bien",
        "https://ipfs.io/ipfs/hash_du_certificat"
      ],
      "transaction": {
        "from": "0x1a2cdc9ea7dfc55aeadb314bb8c3b09e938c989b",
        "to": "0xbb55a96f7c27e0066fda2f58bd4426b0897720a6",
        "gas": "0x86401",
        "value": "0x0",
        "input": "0x689f76860000000000000000000000001a2cdc9ea7dfc55aeadb314bb8c3b09e938c989b00000000000000000000000000000000000000000000000000000000000000c000000000000000000000000000000000000000000000000000000000001ee6290000000000000000000000000000000000000000000000000000000000000100000000000000000000000000000000000000000000000000000000000000016000000000000000000000000000000000000000000000000000000000000001a000000000000000000000000000000000000000000000000000000000000000115468656f2053616d61726173696e67686500000000000000000000000000000000000000000000000000000000000000000000000000000000000000000000244d6173746572202d20496e67656e6965726965206465206c6120426c6f636b636861696e0000000000000000000000000000000000000000000000000000000000000000000000000000000000000000000000000000000000000000000000144d656e74696f6e202d205472c3a873204269656e000000000000000000000000000000000000000000000000000000000000000000000000000000000000002768747470733a2f2f697066732e696f2f697066732f686173685f64755f6365727469666963617400000000000000000000000000000000000000000000000000",
        "nonce": "0x1",
        "chainId": "0x4d2"
      },
      "additionalContracts": [],
      "isFixedGasLimit": false
    },
    {
      "hash": "0x3694d0435c4f1f03fea4e708ce8595fe5bab431a4c5297e043c133127fc3d426",
      "transactionType": "CALL",
      "contractName": "AcademicCertificateNFT",
      "contractAddress": "0xbb55a96f7c27e0066fda2f58bd4426b0897720a6",
      "function": "mintCertificate(address,string,uint256,string,string,string)",
      "arguments": [
        "0x1A2cDc9Ea7dFc55aeaDb314bB8C3b09E938c989b",
        "Alice Dupont",
        "2025002",
        "Master - Architecture des Logiciels",
        "Mention - Bien",
        "https://ipfs.io/ipfs/hash_du_certificat_alice"
      ],
      "transaction": {
        "from": "0x1a2cdc9ea7dfc55aeadb314bb8c3b09e938c989b",
        "to": "0xbb55a96f7c27e0066fda2f58bd4426b0897720a6",
        "gas": "0x89041",
        "value": "0x0",
        "input": "0x689f76860000000000000000000000001a2cdc9ea7dfc55aeadb314bb8c3b09e938c989b00000000000000000000000000000000000000000000000000000000000000c000000000000000000000000000000000000000000000000000000000001ee62a0000000000000000000000000000000000000000000000000000000000000100000000000000000000000000000000000000000000000000000000000000016000000000000000000000000000000000000000000000000000000000000001a0000000000000000000000000000000000000000000000000000000000000000c416c696365204475706f6e74000000000000000000000000000000000000000000000000000000000000000000000000000000000000000000000000000000234d6173746572202d2041726368697465637475726520646573204c6f67696369656c730000000000000000000000000000000000000000000000000000000000000000000000000000000000000000000000000000000000000000000000000e4d656e74696f6e202d204269656e000000000000000000000000000000000000000000000000000000000000000000000000000000000000000000000000002d68747470733a2f2f697066732e696f2f697066732f686173685f64755f636572746966696361745f616c69636500000000000000000000000000000000000000",
        "nonce": "0x2",
        "chainId": "0x4d2"
      },
      "additionalContracts": [],
      "isFixedGasLimit": false
    },
    {
      "hash": "0x293d343ff040cc20e08e594356cc6c05e544dcc252a54eb8715b9315296c88ae",
      "transactionType": "CALL",
      "contractName": "AcademicCertificateNFT",
      "contractAddress": "0xbb55a96f7c27e0066fda2f58bd4426b0897720a6",
      "function": "mintCertificate(address,string,uint256,string,string,string)",
      "arguments": [
        "0x1A2cDc9Ea7dFc55aeaDb314bB8C3b09E938c989b",
        "Bob Martin",
        "2025003",
        "Master - Ingenierie Mobile et Objets Connectes",
        "Mention - Assez Bien",
        "https://ipfs.io/ipfs/hash_du_certificat_bob"
      ],
      "transaction": {
        "from": "0x1a2cdc9ea7dfc55aeadb314bb8c3b09e938c989b",
        "to": "0xbb55a96f7c27e0066fda2f58bd4426b0897720a6",
        "gas": "0x8174e",
        "value": "0x0",
        "input": "0x689f76860000000000000000000000001a2cdc9ea7dfc55aeadb314bb8c3b09e938c989b00000000000000000000000000000000000000000000000000000000000000c000000000000000000000000000000000000000000000000000000000001ee62b0000000000000000000000000000000000000000000000000000000000000100000000000000000000000000000000000000000000000000000000000000016000000000000000000000000000000000000000000000000000000000000001a0000000000000000000000000000000000000000000000000000000000000000a426f62204d617274696e00000000000000000000000000000000000000000000000000000000000000000000000000000000000000000000000000000000002e4d6173746572202d20496e67656e6965726965204d6f62696c65206574204f626a65747320436f6e6e656374657300000000000000000000000000000000000000000000000000000000000000000000000000000000000000000000000000144d656e74696f6e202d20417373657a204269656e000000000000000000000000000000000000000000000000000000000000000000000000000000000000002b68747470733a2f2f697066732e696f2f697066732f686173685f64755f636572746966696361745f626f62000000000000000000000000000000000000000000",
        "nonce": "0x3",
        "chainId": "0x4d2"
      },
      "additionalContracts": [],
      "isFixedGasLimit": false
    },
    {
      "hash": "0x702ed9af3369b502241b468ca3cc9b9208ff957b4a0d5b48ff23ef7fecac1c27",
      "transactionType": "CALL",
      "contractName": "AcademicCertificateNFT",
      "contractAddress": "0xbb55a96f7c27e0066fda2f58bd4426b0897720a6",
      "function": "mintCertificate(address,string,uint256,string,string,string)",
      "arguments": [
        "0x1A2cDc9Ea7dFc55aeaDb314bB8C3b09E938c989b",
        "Claire Lefevre",
        "2025004",
        "Master - Intelligence Artificielle et Big Data",
        "Mention - Très Bien",
        "https://ipfs.io/ipfs/hash_du_certificat_claire"
      ],
      "transaction": {
        "from": "0x1a2cdc9ea7dfc55aeadb314bb8c3b09e938c989b",
        "to": "0xbb55a96f7c27e0066fda2f58bd4426b0897720a6",
        "gas": "0x891a0",
        "value": "0x0",
        "input": "0x689f76860000000000000000000000001a2cdc9ea7dfc55aeadb314bb8c3b09e938c989b00000000000000000000000000000000000000000000000000000000000000c000000000000000000000000000000000000000000000000000000000001ee62c0000000000000000000000000000000000000000000000000000000000000100000000000000000000000000000000000000000000000000000000000000016000000000000000000000000000000000000000000000000000000000000001a0000000000000000000000000000000000000000000000000000000000000000e436c61697265204c656665767265000000000000000000000000000000000000000000000000000000000000000000000000000000000000000000000000002e4d6173746572202d20496e74656c6c6967656e6365204172746966696369656c6c6520657420426967204461746100000000000000000000000000000000000000000000000000000000000000000000000000000000000000000000000000144d656e74696f6e202d205472c3a873204269656e000000000000000000000000000000000000000000000000000000000000000000000000000000000000002e68747470733a2f2f697066732e696f2f697066732f686173685f64755f636572746966696361745f636c61697265000000000000000000000000000000000000",
        "nonce": "0x4",
        "chainId": "0x4d2"
      },
      "additionalContracts": [],
      "isFixedGasLimit": false
    },
    {
      "hash": "0xef49a50906dd8d2771c177d5bcd11b9ffcc9ce402500788455416310a3d81dcf",
      "transactionType": "CALL",
      "contractName": "AcademicCertificateNFT",
      "contractAddress": "0xbb55a96f7c27e0066fda2f58bd4426b0897720a6",
      "function": "mintCertificate(address,string,uint256,string,string,string)",
      "arguments": [
        "0x1A2cDc9Ea7dFc55aeaDb314bB8C3b09E938c989b",
        "David Chen",
        "2025005",
        "Master - Ingenierie du Web",
        "Mention - Passable",
        "https://ipfs.io/ipfs/hash_du_certificat_david"
      ],
      "transaction": {
        "from": "0x1a2cdc9ea7dfc55aeadb314bb8c3b09e938c989b",
        "to": "0xbb55a96f7c27e0066fda2f58bd4426b0897720a6",
        "gas": "0x78ff1",
        "value": "0x0",
        "input": "0x689f76860000000000000000000000001a2cdc9ea7dfc55aeadb314bb8c3b09e938c989b00000000000000000000000000000000000000000000000000000000000000c000000000000000000000000000000000000000000000000000000000001ee62d000000000000000000000000000000000000000000000000000000000000010000000000000000000000000000000000000000000000000000000000000001400000000000000000000000000000000000000000000000000000000000000180000000000000000000000000000000000000000000000000000000000000000a4461766964204368656e00000000000000000000000000000000000000000000000000000000000000000000000000000000000000000000000000000000001a4d6173746572202d20496e67656e69657269652064752057656200000000000000000000000000000000000000000000000000000000000000000000000000124d656e74696f6e202d205061737361626c650000000000000000000000000000000000000000000000000000000000000000000000000000000000000000002d68747470733a2f2f697066732e696f2f697066732f686173685f64755f636572746966696361745f646176696400000000000000000000000000000000000000",
        "nonce": "0x5",
        "chainId": "0x4d2"
      },
      "additionalContracts": [],
      "isFixedGasLimit": false
    }
  ],
  "receipts": [
    {
      "status": "0x1",
      "cumulativeGasUsed": "0x306278",
      "logs": [
        {
          "address": "0xbb55a96f7c27e0066fda2f58bd4426b0897720a6",
          "topics": [
            "0x2f8788117e7eff1d82e926ec794901d17c78024a50270940304540a733656f0d",
            "0x0000000000000000000000000000000000000000000000000000000000000000",
            "0x0000000000000000000000001a2cdc9ea7dfc55aeadb314bb8c3b09e938c989b",
            "0x0000000000000000000000001a2cdc9ea7dfc55aeadb314bb8c3b09e938c989b"
          ],
          "data": "0x",
          "blockHash": "0xae73e270c1ac6ca6b6cce8caa2552ab054c0bf4d614dda3b9367978afe2838c1",
          "blockNumber": "0x9",
          "transactionHash": "0xac81562d203909f26d61b5bf087616edb3022f0376e819d404b988f00086e949",
          "transactionIndex": "0x0",
          "logIndex": "0x0",
          "removed": false
        },
        {
          "address": "0xbb55a96f7c27e0066fda2f58bd4426b0897720a6",
          "topics": [
            "0x2f8788117e7eff1d82e926ec794901d17c78024a50270940304540a733656f0d",
            "0x4b90e70a23ad1c016cdba1a015076c2de977e305fcad3881690cafbe99d36190",
            "0x0000000000000000000000001a2cdc9ea7dfc55aeadb314bb8c3b09e938c989b",
            "0x0000000000000000000000001a2cdc9ea7dfc55aeadb314bb8c3b09e938c989b"
          ],
          "data": "0x",
          "blockHash": "0xae73e270c1ac6ca6b6cce8caa2552ab054c0bf4d614dda3b9367978afe2838c1",
          "blockNumber": "0x9",
          "transactionHash": "0xac81562d203909f26d61b5bf087616edb3022f0376e819d404b988f00086e949",
          "transactionIndex": "0x0",
          "logIndex": "0x1",
          "removed": false
        }
      ],
      "logsBloom": "0x00000004000000000000000000000000000000000000000000000000000000000000000000000000000000000000000000000020000000000200000000000000000000000000000000000000000000000000000000000000000400000000000000010000020000000000000000000800004000000000001000000000000000000000000000000000000000000000000000000000004000000000000000000000000000000000000000000000000000000000000000000000001000000000000000000000000000000000000000000000000000000000000100000000000020000000000000000000000002000000000000000000000800000000000000000000",
      "type": "0x2",
      "transactionHash": "0xac81562d203909f26d61b5bf087616edb3022f0376e819d404b988f00086e949",
      "transactionIndex": "0x0",
      "blockHash": "0xae73e270c1ac6ca6b6cce8caa2552ab054c0bf4d614dda3b9367978afe2838c1",
      "blockNumber": "0x9",
      "gasUsed": "0x306278",
      "effectiveGasPrice": "0x5d21dba01",
      "from": "0x1a2cdc9ea7dfc55aeadb314bb8c3b09e938c989b",
      "to": null,
      "contractAddress": "0xbb55a96f7c27e0066fda2f58bd4426b0897720a6"
    },
    {
      "status": "0x1",
      "cumulativeGasUsed": "0x367597",
      "logs": [
        {
          "address": "0xbb55a96f7c27e0066fda2f58bd4426b0897720a6",
          "topics": [
            "0xddf252ad1be2c89b69c2b068fc378daa952ba7f163c4a11628f55a4df523b3ef",
            "0x0000000000000000000000000000000000000000000000000000000000000000",
            "0x0000000000000000000000001a2cdc9ea7dfc55aeadb314bb8c3b09e938c989b",
            "0x0000000000000000000000000000000000000000000000000000000000000000"
          ],
          "data": "0x",
          "blockHash": "0xae73e270c1ac6ca6b6cce8caa2552ab054c0bf4d614dda3b9367978afe2838c1",
          "blockNumber": "0x9",
          "transactionHash": "0x6545ea51caf9fc5db0bf613258123147cc8ebc4db6596376e17dd9de9fe9c856",
          "transactionIndex": "0x1",
          "logIndex": "0x2",
          "removed": false
        },
        {
          "address": "0xbb55a96f7c27e0066fda2f58bd4426b0897720a6",
          "topics": [
            "0xf8e1a15aba9398e019f0b49df1a4fde98ee17ae345cb5f6b5e2c27f5033e8ce7"
          ],
          "data": "0x0000000000000000000000000000000000000000000000000000000000000000",
          "blockHash": "0xae73e270c1ac6ca6b6cce8caa2552ab054c0bf4d614dda3b9367978afe2838c1",
          "blockNumber": "0x9",
          "transactionHash": "0x6545ea51caf9fc5db0bf613258123147cc8ebc4db6596376e17dd9de9fe9c856",
          "transactionIndex": "0x1",
          "logIndex": "0x3",
          "removed": false
        },
        {
          "address": "0xbb55a96f7c27e0066fda2f58bd4426b0897720a6",
          "topics": [
            "0x33d618f03fce777f020754896bd309ec864294c350ab96e273f8706f29df86e5",
            "0x0000000000000000000000000000000000000000000000000000000000000000",
            "0x00000000000000000000000000000000000000000000000000000000001ee629"
          ],
          "data": "0x00000000000000000000000000000000000000000000000000000000000000400000000000000000000000000000000000000000000000000000000067ae27cd00000000000000000000000000000000000000000000000000000000000000244d6173746572202d20496e67656e6965726965206465206c6120426c6f636b636861696e00000000000000000000000000000000000000000000000000000000",
          "blockHash": "0xae73e270c1ac6ca6b6cce8caa2552ab054c0bf4d614dda3b9367978afe2838c1",
          "blockNumber": "0x9",
          "transactionHash": "0x6545ea51caf9fc5db0bf613258123147cc8ebc4db6596376e17dd9de9fe9c856",
          "transactionIndex": "0x1",
          "logIndex": "0x4",
          "removed": false
        }
      ],
      "logsBloom": "0x00000000000000000000000000000000000000000000000000000000000000000000000000000000000000000000000000000080000000000200000000000000000000000000000000000008000000000000004000000000040400000000000000010000020000000000000000000800004000000000001000000010000000000000000020000000000000000000000000000000000000000000000000000000000000000000000000000000000000002000000000000000000000000000008000000102000000000000000000000000000000000000000000000000000020000000000000000000200002000000000000000000000000000000000000040000",
      "type": "0x2",
      "transactionHash": "0x6545ea51caf9fc5db0bf613258123147cc8ebc4db6596376e17dd9de9fe9c856",
      "transactionIndex": "0x1",
      "blockHash": "0xae73e270c1ac6ca6b6cce8caa2552ab054c0bf4d614dda3b9367978afe2838c1",
      "blockNumber": "0x9",
      "gasUsed": "0x6131f",
      "effectiveGasPrice": "0x5d21dba01",
      "from": "0x1a2cdc9ea7dfc55aeadb314bb8c3b09e938c989b",
      "to": "0xbb55a96f7c27e0066fda2f58bd4426b0897720a6",
      "contractAddress": null
    },
    {
      "status": "0x1",
      "cumulativeGasUsed": "0x3c5092",
      "logs": [
        {
          "address": "0xbb55a96f7c27e0066fda2f58bd4426b0897720a6",
          "topics": [
            "0xddf252ad1be2c89b69c2b068fc378daa952ba7f163c4a11628f55a4df523b3ef",
            "0x0000000000000000000000000000000000000000000000000000000000000000",
            "0x0000000000000000000000001a2cdc9ea7dfc55aeadb314bb8c3b09e938c989b",
            "0x0000000000000000000000000000000000000000000000000000000000000001"
          ],
          "data": "0x",
          "blockHash": "0xae73e270c1ac6ca6b6cce8caa2552ab054c0bf4d614dda3b9367978afe2838c1",
          "blockNumber": "0x9",
          "transactionHash": "0x3694d0435c4f1f03fea4e708ce8595fe5bab431a4c5297e043c133127fc3d426",
          "transactionIndex": "0x2",
          "logIndex": "0x5",
          "removed": false
        },
        {
          "address": "0xbb55a96f7c27e0066fda2f58bd4426b0897720a6",
          "topics": [
            "0xf8e1a15aba9398e019f0b49df1a4fde98ee17ae345cb5f6b5e2c27f5033e8ce7"
          ],
          "data": "0x0000000000000000000000000000000000000000000000000000000000000001",
          "blockHash": "0xae73e270c1ac6ca6b6cce8caa2552ab054c0bf4d614dda3b9367978afe2838c1",
          "blockNumber": "0x9",
          "transactionHash": "0x3694d0435c4f1f03fea4e708ce8595fe5bab431a4c5297e043c133127fc3d426",
          "transactionIndex": "0x2",
          "logIndex": "0x6",
          "removed": false
        },
        {
          "address": "0xbb55a96f7c27e0066fda2f58bd4426b0897720a6",
          "topics": [
            "0x33d618f03fce777f020754896bd309ec864294c350ab96e273f8706f29df86e5",
            "0x0000000000000000000000000000000000000000000000000000000000000001",
            "0x00000000000000000000000000000000000000000000000000000000001ee62a"
          ],
          "data": "0x00000000000000000000000000000000000000000000000000000000000000400000000000000000000000000000000000000000000000000000000067ae27cd00000000000000000000000000000000000000000000000000000000000000234d6173746572202d2041726368697465637475726520646573204c6f67696369656c730000000000000000000000000000000000000000000000000000000000",
          "blockHash": "0xae73e270c1ac6ca6b6cce8caa2552ab054c0bf4d614dda3b9367978afe2838c1",
          "blockNumber": "0x9",
          "transactionHash": "0x3694d0435c4f1f03fea4e708ce8595fe5bab431a4c5297e043c133127fc3d426",
          "transactionIndex": "0x2",
          "logIndex": "0x7",
          "removed": false
        }
      ],
      "logsBloom": "0x00000000000000000000000000000000000000000000000000000000000000000000000000000000000000000000000000000080000000000200000400040000000000000000000000000008001000000000000000040000000400000000000000010000020000000000000000000800004004000000001000000010000000000000000020000000000000000000000000000000000000000000000000000000000000000000000000000000000000002000000000000000000000000000008000000002000000000000000000000000000000000000000000000000000060000000000000000000200002000000000000000000000000000000000000040000",
      "type": "0x2",
      "transactionHash": "0x3694d0435c4f1f03fea4e708ce8595fe5bab431a4c5297e043c133127fc3d426",
      "transactionIndex": "0x2",
      "blockHash": "0xae73e270c1ac6ca6b6cce8caa2552ab054c0bf4d614dda3b9367978afe2838c1",
      "blockNumber": "0x9",
      "gasUsed": "0x5dafb",
      "effectiveGasPrice": "0x5d21dba01",
      "from": "0x1a2cdc9ea7dfc55aeadb314bb8c3b09e938c989b",
      "to": "0xbb55a96f7c27e0066fda2f58bd4426b0897720a6",
      "contractAddress": null
    },
    {
      "status": "0x1",
      "cumulativeGasUsed": "0x422c29",
      "logs": [
        {
          "address": "0xbb55a96f7c27e0066fda2f58bd4426b0897720a6",
          "topics": [
            "0xddf252ad1be2c89b69c2b068fc378daa952ba7f163c4a11628f55a4df523b3ef",
            "0x0000000000000000000000000000000000000000000000000000000000000000",
            "0x0000000000000000000000001a2cdc9ea7dfc55aeadb314bb8c3b09e938c989b",
            "0x0000000000000000000000000000000000000000000000000000000000000002"
          ],
          "data": "0x",
          "blockHash": "0xae73e270c1ac6ca6b6cce8caa2552ab054c0bf4d614dda3b9367978afe2838c1",
          "blockNumber": "0x9",
          "transactionHash": "0x293d343ff040cc20e08e594356cc6c05e544dcc252a54eb8715b9315296c88ae",
          "transactionIndex": "0x3",
          "logIndex": "0x8",
          "removed": false
        },
        {
          "address": "0xbb55a96f7c27e0066fda2f58bd4426b0897720a6",
          "topics": [
            "0xf8e1a15aba9398e019f0b49df1a4fde98ee17ae345cb5f6b5e2c27f5033e8ce7"
          ],
          "data": "0x0000000000000000000000000000000000000000000000000000000000000002",
          "blockHash": "0xae73e270c1ac6ca6b6cce8caa2552ab054c0bf4d614dda3b9367978afe2838c1",
          "blockNumber": "0x9",
          "transactionHash": "0x293d343ff040cc20e08e594356cc6c05e544dcc252a54eb8715b9315296c88ae",
          "transactionIndex": "0x3",
          "logIndex": "0x9",
          "removed": false
        },
        {
          "address": "0xbb55a96f7c27e0066fda2f58bd4426b0897720a6",
          "topics": [
            "0x33d618f03fce777f020754896bd309ec864294c350ab96e273f8706f29df86e5",
            "0x0000000000000000000000000000000000000000000000000000000000000002",
            "0x00000000000000000000000000000000000000000000000000000000001ee62b"
          ],
          "data": "0x00000000000000000000000000000000000000000000000000000000000000400000000000000000000000000000000000000000000000000000000067ae27cd000000000000000000000000000000000000000000000000000000000000002e4d6173746572202d20496e67656e6965726965204d6f62696c65206574204f626a65747320436f6e6e6563746573000000000000000000000000000000000000",
          "blockHash": "0xae73e270c1ac6ca6b6cce8caa2552ab054c0bf4d614dda3b9367978afe2838c1",
          "blockNumber": "0x9",
          "transactionHash": "0x293d343ff040cc20e08e594356cc6c05e544dcc252a54eb8715b9315296c88ae",
          "transactionIndex": "0x3",
          "logIndex": "0xa",
          "removed": false
        }
      ],
      "logsBloom": "0x04000000000000000000000000000000000000000000000000040000000000000000000000000000000000000000000000000080000000000200000000000000000000000000000000000008000000000000000000000000000400000000000000010000020000000000000000000800004000000000001000000010000000000000000020000004000000000000000000000000000000000000000000000000000000000000000000000100000000002000000000000000000000000000028000000002000000000000000000000000000000000000000000000000000020000000000000000000200002000000000000000000008000000000000000040000",
      "type": "0x2",
      "transactionHash": "0x293d343ff040cc20e08e594356cc6c05e544dcc252a54eb8715b9315296c88ae",
      "transactionIndex": "0x3",
      "blockHash": "0xae73e270c1ac6ca6b6cce8caa2552ab054c0bf4d614dda3b9367978afe2838c1",
      "blockNumber": "0x9",
      "gasUsed": "0x5db97",
      "effectiveGasPrice": "0x5d21dba01",
      "from": "0x1a2cdc9ea7dfc55aeadb314bb8c3b09e938c989b",
      "to": "0xbb55a96f7c27e0066fda2f58bd4426b0897720a6",
      "contractAddress": null
    },
    {
      "status": "0x1",
      "cumulativeGasUsed": "0x480814",
      "logs": [
        {
          "address": "0xbb55a96f7c27e0066fda2f58bd4426b0897720a6",
          "topics": [
            "0xddf252ad1be2c89b69c2b068fc378daa952ba7f163c4a11628f55a4df523b3ef",
            "0x0000000000000000000000000000000000000000000000000000000000000000",
            "0x0000000000000000000000001a2cdc9ea7dfc55aeadb314bb8c3b09e938c989b",
            "0x0000000000000000000000000000000000000000000000000000000000000003"
          ],
          "data": "0x",
          "blockHash": "0xae73e270c1ac6ca6b6cce8caa2552ab054c0bf4d614dda3b9367978afe2838c1",
          "blockNumber": "0x9",
          "transactionHash": "0x702ed9af3369b502241b468ca3cc9b9208ff957b4a0d5b48ff23ef7fecac1c27",
          "transactionIndex": "0x4",
          "logIndex": "0xb",
          "removed": false
        },
        {
          "address": "0xbb55a96f7c27e0066fda2f58bd4426b0897720a6",
          "topics": [
            "0xf8e1a15aba9398e019f0b49df1a4fde98ee17ae345cb5f6b5e2c27f5033e8ce7"
          ],
          "data": "0x0000000000000000000000000000000000000000000000000000000000000003",
          "blockHash": "0xae73e270c1ac6ca6b6cce8caa2552ab054c0bf4d614dda3b9367978afe2838c1",
          "blockNumber": "0x9",
          "transactionHash": "0x702ed9af3369b502241b468ca3cc9b9208ff957b4a0d5b48ff23ef7fecac1c27",
          "transactionIndex": "0x4",
          "logIndex": "0xc",
          "removed": false
        },
        {
          "address": "0xbb55a96f7c27e0066fda2f58bd4426b0897720a6",
          "topics": [
            "0x33d618f03fce777f020754896bd309ec864294c350ab96e273f8706f29df86e5",
            "0x0000000000000000000000000000000000000000000000000000000000000003",
            "0x00000000000000000000000000000000000000000000000000000000001ee62c"
          ],
          "data": "0x00000000000000000000000000000000000000000000000000000000000000400000000000000000000000000000000000000000000000000000000067ae27cd000000000000000000000000000000000000000000000000000000000000002e4d6173746572202d20496e74656c6c6967656e6365204172746966696369656c6c65206574204269672044617461000000000000000000000000000000000000",
          "blockHash": "0xae73e270c1ac6ca6b6cce8caa2552ab054c0bf4d614dda3b9367978afe2838c1",
          "blockNumber": "0x9",
          "transactionHash": "0x702ed9af3369b502241b468ca3cc9b9208ff957b4a0d5b48ff23ef7fecac1c27",
          "transactionIndex": "0x4",
          "logIndex": "0xd",
          "removed": false
        }
      ],
      "logsBloom": "0x00000000000000000000000000000000000000000400000000000000000000000000000000000000000000000000000000000080020000000200000000000000000000000000000000000008000000000800000000000000000400000000000000010000020000000000000000000800004000000000001000000010000000000000000020000800000000000000000000000000000000000000000000000000000000000000000000000000000000002000000000800000000000000000408000000002000000000000000000000000000000000000000000000000000020000000000000000000200002000000000000000000000000000000000000040000",
      "type": "0x2",
      "transactionHash": "0x702ed9af3369b502241b468ca3cc9b9208ff957b4a0d5b48ff23ef7fecac1c27",
      "transactionIndex": "0x4",
      "blockHash": "0xae73e270c1ac6ca6b6cce8caa2552ab054c0bf4d614dda3b9367978afe2838c1",
      "blockNumber": "0x9",
      "gasUsed": "0x5dbeb",
      "effectiveGasPrice": "0x5d21dba01",
      "from": "0x1a2cdc9ea7dfc55aeadb314bb8c3b09e938c989b",
      "to": "0xbb55a96f7c27e0066fda2f58bd4426b0897720a6",
      "contractAddress": null
    },
    {
      "status": "0x1",
      "cumulativeGasUsed": "0x4d33cd",
      "logs": [
        {
          "address": "0xbb55a96f7c27e0066fda2f58bd4426b0897720a6",
          "topics": [
            "0xddf252ad1be2c89b69c2b068fc378daa952ba7f163c4a11628f55a4df523b3ef",
            "0x0000000000000000000000000000000000000000000000000000000000000000",
            "0x0000000000000000000000001a2cdc9ea7dfc55aeadb314bb8c3b09e938c989b",
            "0x0000000000000000000000000000000000000000000000000000000000000004"
          ],
          "data": "0x",
          "blockHash": "0xae73e270c1ac6ca6b6cce8caa2552ab054c0bf4d614dda3b9367978afe2838c1",
          "blockNumber": "0x9",
          "transactionHash": "0xef49a50906dd8d2771c177d5bcd11b9ffcc9ce402500788455416310a3d81dcf",
          "transactionIndex": "0x5",
          "logIndex": "0xe",
          "removed": false
        },
        {
          "address": "0xbb55a96f7c27e0066fda2f58bd4426b0897720a6",
          "topics": [
            "0xf8e1a15aba9398e019f0b49df1a4fde98ee17ae345cb5f6b5e2c27f5033e8ce7"
          ],
          "data": "0x0000000000000000000000000000000000000000000000000000000000000004",
          "blockHash": "0xae73e270c1ac6ca6b6cce8caa2552ab054c0bf4d614dda3b9367978afe2838c1",
          "blockNumber": "0x9",
          "transactionHash": "0xef49a50906dd8d2771c177d5bcd11b9ffcc9ce402500788455416310a3d81dcf",
          "transactionIndex": "0x5",
          "logIndex": "0xf",
          "removed": false
        },
        {
          "address": "0xbb55a96f7c27e0066fda2f58bd4426b0897720a6",
          "topics": [
            "0x33d618f03fce777f020754896bd309ec864294c350ab96e273f8706f29df86e5",
            "0x0000000000000000000000000000000000000000000000000000000000000004",
            "0x00000000000000000000000000000000000000000000000000000000001ee62d"
          ],
          "data": "0x00000000000000000000000000000000000000000000000000000000000000400000000000000000000000000000000000000000000000000000000067ae27cd000000000000000000000000000000000000000000000000000000000000001a4d6173746572202d20496e67656e696572696520647520576562000000000000",
          "blockHash": "0xae73e270c1ac6ca6b6cce8caa2552ab054c0bf4d614dda3b9367978afe2838c1",
          "blockNumber": "0x9",
          "transactionHash": "0xef49a50906dd8d2771c177d5bcd11b9ffcc9ce402500788455416310a3d81dcf",
          "transactionIndex": "0x5",
          "logIndex": "0x10",
          "removed": false
        }
      ],
      "logsBloom": "0x0000000000000000000000000000000000000000000000000000000000000000000000000000000000000000000000000000008000000000020000000000800000000000000000000000000800000000000000000000000000040000000000000c010000020000000000000000000800004000000000001000000010000000000000000020000000000000000000000000000000000000000000000000000000000000000000000000000000000000002000000000000000002000000000008000000002000000000000000200000000000000008000000000000000000020000000000000000000200002000000000000000000000000000000000000040000",
      "type": "0x2",
      "transactionHash": "0xef49a50906dd8d2771c177d5bcd11b9ffcc9ce402500788455416310a3d81dcf",
      "transactionIndex": "0x5",
      "blockHash": "0xae73e270c1ac6ca6b6cce8caa2552ab054c0bf4d614dda3b9367978afe2838c1",
      "blockNumber": "0x9",
      "gasUsed": "0x52bb9",
      "effectiveGasPrice": "0x5d21dba01",
      "from": "0x1a2cdc9ea7dfc55aeadb314bb8c3b09e938c989b",
      "to": "0xbb55a96f7c27e0066fda2f58bd4426b0897720a6",
      "contractAddress": null
    }
  ],
  "libraries": [],
  "pending": [],
  "returns": {},
  "timestamp": 1739466701,
  "chain": 1234,
  "commit": "c49fae9"
}